:020000040800F2
:100000004012002099370008093700080B37000814
:100010000D3700080F3700081137000800000000F6
:10002000000000000000000000000000133700087E
:1000300015370008000000001737000819370008BE
:10004000BD370008C1370008C5370008C9370008A8
:10005000CD37000825370008D1370008D53700080C
:10006000D9370008DD370008E1370008E537000818
:10007000E9370008ED370008F1370008F5370008C8
:10008000F9370008FD370008013800080538000876
:10009000093800080D380008113800081538000824
:1000A000193800081D3800082138000825380008D4
:1000B000293800082D380008313800083538000884
:1000C000393800083D380008413800084538000834
:1000D000493800084D3800085138000855380008E4
:1000E000593800085D380008613800086538000894
:1000F000693800086D380008713800087538000844
:10010000793800087D3800088138000885380008F3
:10011000893800088D3800089138000895380008A3
:10012000993800089D380008A1380008A538000853
:10013000A9380008AD380008B1380008B538000803
:10014000B9380008BD380008C1380008C5380008B3
:10015000C9380008CD380008D1380008D538000863
:10016000D9380008DD380008E1380008E538000813
:10017000E9380008ED380008F138000800000000F8
:10018000F5380008F938000838B504000025206863
:10019000102804D3F321DFF8B40800F07DFC2078A8
:1001A000C00740F18080606800280CD06068B0F51E
:1001B000803F08D06068B0F5A02F04D0F821DFF8A8
:1001C0008C0800F069FCDFF88808006810F00C006B
:1001D00004280BD0DFF87808006810F00C0008281D
:1001E0000ED1DFF870080068400209D5DFF8680812
:1001F0000068800357D56068002854D101204FE281
:100200006068B0F5803F08D1DFF84C08006850F412
:100210008030DFF84418086024E06068B0F5A02F53
:1002200010D1DFF83408006850F48020DFF8281877
:100230000860DFF82408006850F48030DFF81818F0
:1002400008600FE0DFF81008006830F48030DFF855
:1002500008180860DFF80008006830F48020DFF834
:10026000F8170860606800280ED000F04CFC05000C
:10027000DFF8E4070068800315D400F044FC401B5D
:100280006528F5D303200BE200F03DFC0500DFF804
:10029000C8070068800306D500F035FC401B6528C0
:1002A000F5D30320FCE12078800740D5E0680028E2
:1002B00008D0E068012805D04FF49571DFF88C076D
:1002C00000F0EAFB2069202805D340F22B11DFF86B
:1002D0007C0700F0E1FBDFF87807006810F00C0FF6
:1002E0000BD0DFF86C07006810F00C00082843D131
:1002F000DFF86007006840023ED4DFF85C07006862
:10030000800704D5E068012801D00120C8E1DFF8AA
:10031000480700685FF0F851B1FA81F130F0F80059
:10032000226912FA01F10843DFF82C1708602078DF
:1003300000076ED56069002808D06069012805D0E3
:1003400040F26B11DFF8040700F0A6FB606900289B
:100350004CD00120DFF80417086000F0D4FB050042
:10036000DFF8FC060068800753D400F0CCFB401B8C
:100370000328F5D3032093E1E068002823D001206F
:10038000DFF8E016086000F0BEFB0500DFF8C806E5
:100390000068800706D400F0B6FB401B0328F5D3A5
:1003A00003207DE1DFF8B00600685FF0F851B1FA94
:1003B00081F130F0F800226912FA01F10843DFF808
:1003C00098160860B3E70020DFF89816086000F080
:1003D0009AFB0500DFF8800600688007A7D500F0CB
:1003E00092FB401B0328F5D3032059E10020DFF8DE
:1003F0006C16086000F087FB0500DFF864060068F3
:10040000800706D500F07FFB401B0328F5D30320AF
:1004100046E12078400740F18C80A06800280BD08E
:10042000A068012808D0A068052805D040F29511E1
:10043000DFF8180600F030FB00200090DFF82806F7
:10044000006850F08050DFF820160860DFF81806CA
:10045000006810F0805000900098DFF810060068E7
:1004600050F48070DFF80416086000F04CFB0500C3
:10047000DFF8F8050068C00506D400F044FB401B17
:100480000328F5D303200BE1A068012808D1DFF889
:10049000E005006850F00100DFF8D415086023E0A3
:1004A000A068052810D1DFF8C805006850F00400E6
:1004B000DFF8BC150860DFF8B805006850F00100EF
:1004C000DFF8AC1508600FE0DFF8A405006840080D
:1004D0004000DFF89C150860DFF89405006830F0F4
:1004E0000400DFF88C150860A068002810D000F028
:1004F0000AFB0500DFF878050068800719D400F0D2
:1005000002FB401B41F289318842F3D30320C7E04C
:1005100000F0F9FA0500DFF858050068800708D5F3
:1005200000F0F1FA401B41F289318842F3D30320F5
:10053000B6E0A06900280BD0A069012808D0A06906
:10054000022805D04FF4E571DFF8000500F0A4FAA9
:10055000A069002800F0A380DFF8F404006810F020
:100560000C00082800F09980A069022840F08280E1
:10057000E069002809D0E069B0F5800F05D040F2AD
:10058000D311DFF8C80400F087FA206A402805D3A9
:100590004FF4EA71DFF8B40400F07EFA606A323892
:1005A000B0F5BF7F05D940F2D511DFF8A00400F007
:1005B00073FAA06A02280ED0A06A04280BD0A06AA1
:1005C000062808D0A06A082805D04FF4EB71DFF8A0
:1005D0007C0400F061FAE06A801E0E2805D340F228
:1005E000D711DFF8680400F057FA0020DFF8841410
:1005F000086000F088FA0500DFF85C0400688001FC
:1006000006D500F080FA401B0328F5D3032047E00D
:10061000DFF86404B0FA80F14FF44040B0FA80F2A1
:10062000F020B0FA80F0E369256A2B43656A15FA79
:1006300001F11943A36A5B085B1E13FA02F211432E
:10064000E26A12FA00F00843DFF80814086001209B
:10065000DFF82014086000F056FA0500DFF8F80310
:10066000006880011BD400F04EFA401B0328F5D32C
:10067000032015E00020DFF8FC13086000F043FAC7
:100680000500DFF8D4030068800108D500F03BFACC
:10069000401B0328F5D3032002E0012000E00020E6
:1006A00032BD70B504000D0000262068002802D07D
:1006B0002068102805D340F23521DFF8900300F0C0
:1006C000EBF9002D13D0012D11D0022D0FD0032DE9
:1006D0000DD0042D0BD0052D09D0062D07D0072DE8
:1006E00005D040F23621DFF8640300F0D5F9DFF8D9
:1006F0008C03006810F00F00A8420BD2DFF87C03D7
:100700000570DFF87803006810F00F00A84201D0F0
:1007100001202DE1207880072AD5A06800281DD06F
:10072000A06880281AD0A068902817D0A068A028B8
:1007300014D0A068B02811D0A068C0280ED0A0683E
:10074000D0280BD0A068E02808D0A068F02805D0F9
:1007500040F24D21DFF8F40200F09EF9DFF8F002DC
:10076000006830F0F000A1680843DFF8E412086088
:100770002078C00740F18580606800280ED060684E
:1007800001280BD06068022808D06068032805D0D3
:100790004FF41571DFF8B40200F07EF960680128AB
:1007A00006D1DFF8B4020068800315D40120DFE031
:1007B0006068022802D06068032806D1DFF898023A
:1007C0000068800108D40120D2E0DFF88C020068C4
:1007D000800701D40120CBE0DFF8740200688008B4
:1007E000800061680843DFF86812086000F08BF948
:1007F0000600606801280FD1DFF85402006810F08D
:100800000C0004283DD000F07EF9801B41F28931B4
:100810008842F1D30320ABE0606802280FD1DFF8F3
:100820003002006810F00C0008282AD000F06BF9A4
:10083000801B41F289318842F1D3032098E060683F
:1008400003280FD1DFF80802006810F00C000C2814
:1008500017D000F058F9801B41F289318842F1D35A
:10086000032085E0DFF8E801006810F00C0F08D0E5
:1008700000F049F9801B41F289318842F2D303200C
:1008800076E0DFF8F801006810F00F0085420BD227
:10089000DFF8E8010570DFF8E401006810F00F00F0
:1008A000A84201D0012063E02078400722D5E0680B
:1008B000002815D0E068B0F5805F11D0E068B0F591
:1008C000A05F0DD0E068B0F5C05F09D0E068B0F57A
:1008D000E05F05D040F2B221DFF8700100F0DCF8F3
:1008E000DFF86C01006830F4E050E1680843DFF89D
:1008F000601108602078000723D52069002815D0F2
:100900002069B0F5805F11D02069B0F5A05F0DD0EF
:100910002069B0F5C05F09D02069B0F5E05F05D06F
:1009200040F2B921DFF8240100F0B6F8DFF8200129
:10093000006830F46040216950EAC100DFF810110E
:10094000086000F01AF8DFF8081109685FF07062BB
:10095000B2FA82F2DFF8283111F0F001D140C95C1F
:10096000C840DFF820110860002000F0B4F8002033
:1009700070BD01204449086070470020002000211C
:1009800000203348006810F00C00002804D0042830
:1009900004D0082804D034E03C4833E03C4831E03F
:1009A0002C48006810F03F002A49096849020DD51B
:1009B00028490968364AB2FBF0F047F6C072114088
:1009C0002D4AB2FA82F2D14048430CE0214909682D
:1009D0002E4AB2FBF0F047F6C0721140264AB2FA36
:1009E00082F2D14048431B49096811F440314FF469
:1009F0004042B2FA82F2D140491C4900B0FBF1F00A
:100A000000E0224870471F480068704780B5FFF734
:100A1000FAFF0F4909685FF46012B2FA82F21D4BC7
:100A200011F4E051D140C95CC84002BD80B5FFF768
:100A3000EAFF074909685FF4E022B2FA82F2154B37
:100A400011F46041D140C95CC84002BD683400085F
:100A5000083802400438024000380240800E474205
:100A600074380240000047424038024000700040A5
:100A700070380240600047420000FE03003C024024
:100A800088370008400100204C0047420024F40051
:100A900000127A00B4370008FEE7000080B5234852
:100AA000006850F40070214908602048006850F444
:100AB00080601E4908601D48006850F480701B4922
:100AC0000860032000F0A6F8002000F004F800F011
:100AD0001CF9002002BD10B50400154800684FF451
:100AE0007A71B0FBF1F000F0D8F8002221005FF03D
:100AF000FF3000F0A4F8002010BD0E480068401C34
:100B00000C49086070470B480068704731B5FFF723
:100B1000FAFF0400009D15F1010F00D06D1CFFF7D6
:100B2000F2FF001BA842FAD331BD0000003C024096
:100B3000400100203402002010F00701DFF89C0182
:100B400000684FF6FF021040DFF8942152EA0121BD
:100B50000843DFF8881108607047DFF880010068FB
:100B6000C0F302207047012110F01F029140DFF80E
:100B7000742140B2400942F82010704740B200286A
:100B800009D50901DFF8602140B210F00F0080188C
:100B900000F8041C04E00901DFF8502140B2815440
:100BA000704710B410F00700D0F10703052B01D3F4
:100BB000042301E0D0F10703041D072C01D200201B
:100BC00000E0C01E012414FA03F35B1E19408140AB
:100BD000012313FA00F0401E1040084310BC704778
:100BE00080B5411EB1F1807F01D3012011E0401E8C
:100BF000DFF8FC1008600F215FF0FF30FFF7BEFF49
:100C00000020DFF8F01008600720DFF8EC10086023
:100C1000002002BD10B50400072C0CD0062C0AD011
:100C2000052C08D0042C06D0032C04D0A421DFF816
:100C3000CC00FFF731FF2000FFF77EFF10BD70B53D
:100C400004000D0016000020102E04D3BC21DFF894
:100C5000AC00FFF721FF102D04D3BD21DFF89C006D
:100C6000FFF71AFFFFF779FF32002900FFF799FF1E
:100C70000100200040B2FFF781FF70BD10B50400F5
:100C800064B2002C04D5D021DFF87000FFF704FF18
:100C9000200040B2FFF767FF10BD80B5FFF7A0FF4F
:100CA00002BD10B50400042C06D0002C04D040F284
:100CB000DB111248FFF7F0FE042C06D10E48006845
:100CC00050F004000C49086005E00B48006830F063
:100CD00004000949086010BD000000000CED00E0B0
:100CE0000000FA0500E100E018ED00E000E400E09B
:100CF00014E000E018E000E010E000E044330008F9
:100D000080B500F001F801BD704780B50320FFF702
:100D100081FF002200217FF00B00FFF790FF0022EF
:100D200000217FF00A00FFF78AFF002200217FF0F8
:100D30000900FFF784FF002200217FF00400FFF785
:100D40007EFF002200217FF00300FFF778FF0022E2
:100D500000217FF00100FFF772FF002200215FF009
:100D6000FF30FFF76CFF002200210520FFF767FF2F
:100D70000520FFF783FF01BD00B587B0DFF87007DE
:100D80000068002840F0C5800120DFF86417086083
:100D900000200090DFF85C07006850F04000DFF8AA
:100DA00054170860DFF84C07006810F0400000900E
:100DB000009800200090DFF83C07006850F0200009
:100DC000DFF830170860DFF82C07006810F020000B
:100DD0000090009800200090DFF81807006850F09D
:100DE0000400DFF810170860DFF80807006810F04B
:100DF00004000090009800200090DFF8F8060068DA
:100E000050F02000DFF8EC160860DFF8E806006814
:100E100010F020000090009800200090DFF8D40629
:100E2000006850F01000DFF8CC160860DFF8C40648
:100E3000006810F010000090009800200090DFF88B
:100E4000B406006850F00800DFF8A8160860DFF864
:100E5000A406006810F008000090009800200090A0
:100E6000DFF89406006850F00100DFF88C16086087
:100E7000DFF88406006810F001000090009801205F
:100E8000019002200290022004900C20059001A9FC
:100E9000DFF8680600F046FB4FF480500190022016
:100EA00002900220049001A9DFF8540600F03AFBFA
:100EB0004FF68070019002200290022004900C20D6
:100EC000059001A9DFF83C0600F02CFB4CF23370D2
:100ED000019002200290022004900C20059001A9AC
:100EE000DFF8240600F01EFB00224FF40071DFF84B
:100EF0001C0600F007FD4FF40070019001200290E5
:100F0000002004900C20059001A9DFF8000600F0F5
:100F100009FB07B000BD80B5FFF72EFF01BD00B58E
:100F200087B05FF02040DFF8E8150860DFF8E405DF
:100F3000DFF8DC1548600620DFF8D4158860002053
:100F4000DFF8CC15C8600020DFF8C4150861102058
:100F5000DFF8BC1548610020DFF8B4158861002077
:100F6000DFF8AC15C8610020DFF8A4150862002086
:100F7000DFF89C1548624FF48050DFF894158862C2
:100F80000020DFF88C15C8620020DFF884150863A4
:100F90000020DFF87C1548630020DFF874158863B3
:100FA0000020DFF86C1548640220009000200190BA
:100FB000052002900020039000200490002005905E
:100FC000002006906A466946DFF8440500F0E8FC18
:100FD00007B000BD80B5E0205FF0D8410880002058
:100FE000DFF8341508800720DFF82C150880102062
:100FF000DFF8241508800920DFF81C150880172069
:10100000DFF8141508800B20DFF80C15088041204C
:10101000DFF8041508808920DFF8FC1408804B20D5
:10102000DFF8F41408800A20DFF8EC1408800C20A4
:10103000DFF8E41408800E20DFF8DC1408801820A4
:10104000DFF8D41408801B20DFF8CC1408800F20B0
:10105000DFF8C4140880E1205FF0D8410880002048
:10106000DFF8B41408801720DFF8AC1408801A20C9
:10107000DFF8A41408800420DFF89C1408800E20F8
:10108000DFF8941408800620DFF88C1408802F20E5
:10109000DFF8841408804520DFF87C1408804320A2
:1010A000DFF8741408800220DFF86C1408800A202E
:1010B000DFF8641408800920DFF85C14088032200F
:1010C000DFF8541408803620DFF84C1408800F2015
:1010D000DFF844140880F7205FF0D8410880A92089
:1010E000DFF8341408805120DFF82C1408802C20FD
:1010F000DFF8241408808220DFF81C140880C02048
:101100005FF0D84108801120DFF80C140880092016
:10111000DFF804140880C1205FF0D8410880412026
:10112000DFF8F4130880C5205FF0D8410880002064
:10113000DFF8E41308800A20DFF8DC130880802041
:10114000DFF8D4130880B1205FF0D8410880B020C8
:10115000DFF8C41308801120DFF8BC130880B42026
:101160005FF0D84108800220DFF8AC130880B62079
:101170005FF0D84108800220DFF89C13088022200D
:10118000DFF894130880B7205FF0D8410880C620AC
:10119000DFF884130880BE205FF0D841088000206B
:1011A000DFF8741308800420DFF86C130880E9204E
:1011B0005FF0D84108800020DFF85C130880012030
:1011C00000F066F83A205FF0D84108805520DFF83B
:1011D0004813088011205FF0D84108807820FFF77D
:1011E00095FC29205FF0D841088001BD82B0042021
:1011F0005FF0D8410880DFF820030088ADF80000D8
:10120000DFF814030088C0B2ADF80200DFF808036D
:101210000088C0B2ADF80400DFF8FC020088C0B25C
:10122000ADF80600BDF80200BDF80410090211EB8C
:101230000040BDF8061010FA81F002B0704780B58A
:10124000FFF76DFEFFF7D2FFDFF8D0120860DFF87E
:10125000CC020068DFF8C812884206D0DFF8BC0272
:10126000006848F26601884201D1FFF7B3FE002012
:1012700000904FF4F0734FF4A0720021002000F0B2
:1012800024F91420FFF742FCDFF89002006802BD49
:10129000C0B2012808D0C0F0CA80032866D034D379
:1012A000042800F09480C2E036205FF0D841088026
:1012B0000820DFF8641208802A205FF0D8410880F7
:1012C0000020DFF8541208800020DFF84C1208805C
:1012D0000120DFF8441208803F20DFF83C1208802C
:1012E0002B205FF0D84108800020DFF82C12088006
:1012F0000020DFF8241208800120DFF81C1208808B
:10130000DF20DFF81412088091E036205FF0D8412A
:1013100008806820DFF8001208802A205FF0D8419A
:1013200008800020DFF8F01108800020DFF8E811C5
:1013300008800120DFF8E0110880DF20DFF8D811F5
:1013400008802B205FF0D84108800020DFF8C8110A
:1013500008800020DFF8C01108800120DFF8B811F4
:1013600008803F20DFF8B011088060E036205FF091
:10137000D8410880C820DFF8A01108802A205FF03B
:10138000D84108800020DFF8901108800020DFF8A5
:10139000881108800120DFF8801108803F20DFF8E5
:1013A000781108802B205FF0D84108800020DFF8FA
:1013B000681108800020DFF8601108800120DFF844
:1013C000581108803F20DFF8501108802FE03620A8
:1013D0005FF0D8410880A820DFF83C1108802A205F
:1013E0005FF0D84108800020DFF82C110880002031
:1013F000DFF8241108800120DFF81C110880DF20AD
:10140000DFF8141108802B205FF0D84108800020FD
:10141000DFF8041108800020DFF8FC1008800120AC
:10142000DFF8F41008803F20DFF8EC1008802C2053
:101430005FF0D8410880704730B42A245FF0D84567
:101440002C800400A4B2240ADFF8CC502C80C4B253
:10145000DFF8C4502C8092B212FA80F4641E241279
:10146000DFF8B4502C801018401EC0B2DFF8A8205E
:1014700010802B205FF0D8421080080080B2000A54
:10148000DFF894201080C8B2DFF88C2010809BB267
:1014900013FA81F0401E0012DFF87C2010805818EB
:1014A000401EC0B2DFF87010088030BC70470022C8
:1014B0002C225FF0D8431A80002203E0DFF8583076
:1014C0001980521C8242F9D3704738B514001D00B0
:1014D0002B009BB2220092B289B280B2FFF7ACFF20
:1014E0000499A4B2ADB205FB04F0FFF7E0FF31BDF3
:1014F00030020020303802403838024000140240E8
:101500000018024000100240000C02400008024097
:1015100044010020040100A00200006C2C02002005
:1015200066805400F8B504000D000020002700205C
:10153000DFF81404844224D0DFF81004844220D061
:10154000DFF80C0484421CD0DFF80804844218D071
:10155000DFF80404844214D0DFF80004844210D081
:10156000DFF8FC0384420CD0DFF8F803844208D093
:10157000DFF8F403844204D0C521DFF8F003FFF75D
:101580008BFA2868000404D02868000C00040028A6
:1015900004D0C621DFF8D403FFF77EFA686800287C
:1015A00031D0686801282ED0686811282BD068686F
:1015B000022828D06868122825D06868DFF8B013A0
:1015C000884220D06868DFF8AC1388421BD0686876
:1015D000DFF8A413884216D06868DFF8A0138842A9
:1015E00011D06868DFF8981388420CD06868DFF87B
:1015F0009413884207D06868032804D0C721DFF815
:101600006C03FFF749FAA86800280AD0A8680128E7
:1016100007D0A868022804D0C821DFF85003FFF7DC
:101620003BFA002639E00821C9B216F00302D2B213
:10163000920091400843DFF85013B20841F82200AD
:10164000DFF848030068B8436968C90300D5384328
:10165000DFF838130860DFF838030068B8436968BA
:10166000890300D53843DFF828130860DFF8240326
:101670000068B8436968C90200D53843DFF814131D
:101680000860DFF814030068B8436968890200D570
:101690003843DFF804130860761C102E80F0318187
:1016A0000120B040296810EA01078742F4D1686838
:1016B000022803D06868122840F087802869002833
:1016C0006DD0286909286AD02869002867D0286960
:1016D000002864D02869002861D0286900285ED0DD
:1016E000286901285BD02869012858D02869022878
:1016F00055D02869022852D0286902284FD028697D
:1017000003284CD02869042849D02869042846D0E9
:101710002869042843D02869052840D0286905286D
:101720003DD0286909283AD02869062837D0286989
:10173000092834D02869072831D0286907282ED0F5
:10174000286907282BD02869082828D02869082864
:1017500025D02869082822D0286909281FD028699F
:1017600009281CD028690A2819D028690A2816D007
:1017700028690B2813D028690C2810D028690C2858
:101780000DD028690D280AD028690C2807D02869AF
:101790000F2804D0D921DFF8D401FFF77DF9F00834
:1017A00014EB8000006A0F2116F00702D2B29200FB
:1017B00091408843296916F00702D2B29200914005
:1017C0000843F10814EB810108622068032132000C
:1017D000D2B2520091408843297911F003013200BE
:1017E000D2B252009140084320606868012808D0B6
:1017F0006868022805D06868112802D06868122835
:1018000028D1E86800280DD0E86801280AD0E868E7
:10181000022807D0E868032804D0EC21DFF84C0147
:10182000FFF73AF9A06803213200D2B2520091408A
:101830008843E9683200D2B2520091400843A06068
:1018400060680121B14088436968C1F30011B1406B
:1018500008436060E06803213200D2B25200914038
:101860008843A9683200D2B2520091400843E06038
:101870006868C0007FF510AF00200090DFF81C0101
:10188000006850F48040DFF814110860DFF80C01A4
:10189000006810F48040009000983B48B10850F870
:1018A00021000F2116F00302D2B29200914088432A
:1018B00025498C4201D10021B6E624498C4201D150
:1018C0000121B1E622498C4201D10221ACE6214935
:1018D0008C4201D10321A7E61F498C4201D104218A
:1018E000A2E61E498C4201D105219DE61C498C428D
:1018F00001D1062198E61B498C427FF494AE072162
:1019000092E6F1BD70B504000D001600ADB2002DD9
:1019100004D140F2B1111548FFF7BEF876B2002E9F
:1019200007D076B2012E04D04FF4D9710F48FFF7DB
:10193000B3F876B2002E02D0ADB2A56102E0ADB22E
:101940002804A06170BD00000000024000040240B5
:1019500000080240000C0240001002400014024047
:1019600000180240001C024000200240D83300084A
:1019700000001110000021100000311000001210B2
:10198000000022100000321008380140003C0140E5
:10199000043C0140083C01400C3C014044380240FA
:1019A00070B504000D001600002C01D1012024E0C8
:1019B00094F94900002805D1002084F8480020004F
:1019C000FFF7A9FA14F10801206800F017F8A268DF
:1019D0002900206800F004F9236BA26831006068D8
:1019E00000F08CF92068A16850F8210050F0010047
:1019F0002168A26841F82200002070BD38B50400BB
:101A00000D00002014F1C04F04D09821DFF8F80336
:101A1000FFF742F8286800280DD0286802280AD06D
:101A20002868042807D02868062804D09921DFF800
:101A3000D803FFF731F86868002807D068680228E3
:101A400004D09A21DFF8C003FFF726F8A868002821
:101A50000AD0A868042807D0A868082804D09B21C9
:101A6000DFF8A403FFF718F8E86800280AD0E86850
:101A7000102807D0E868202804D09C21DFF88803CC
:101A8000FFF70AF82869002808D02869B0F5807F98
:101A900004D09D21DFF87003FEF7FEFF686900287F
:101AA00008D06869B0F5007F04D09E21DFF85803A4
:101AB000FEF7F2FFA869002808D0A869B0F5806F8A
:101AC00004D0A021DFF84003FEF7E6FFE869002814
:101AD00008D0E869B0F5006F04D0A221DFF8280330
:101AE000FEF7DAFF286A002808D0286AB0F5805F80
:101AF00004D0A321DFF81003FEF7CEFF686A0028A8
:101B000008D0686AB0F5005F04D0A421DFF8F802BD
:101B1000FEF7C2FFA86A002808D0A86AB0F5804F77
:101B200004D0A521DFF8E002FEF7B6FFE86A00283E
:101B300008D0E86AB0F5004F04D0A621DFF8C8024B
:101B4000FEF7AAFF286B002808D0286BB0F5002FFD
:101B500004D0A721DFF8B002FEF79EFFE86B002853
:101B600014D0E86BB0F5803F10D0E86BB0F5003FC3
:101B70000CD0E86BB0F5403F08D0E86BB0F5802F93
:101B800004D0A821DFF88002FEF786FF286854F809
:101B90002000DFF8781208406968AA681143EA68F3
:101BA00011432A6911436A691143AA691143EA6919
:101BB00011432A6A11436A6A1143AA6A1143EA6A05
:101BC0001143EA6B11432A6B11430843A9680829A2
:101BD00001D150F04000296844F82100002032BDB6
:101BE00070B504000D001600002014F1C04F05D0A0
:101BF0004FF49571DFF81002FEF74EFF28681028A9
:101C000005D340F22B11DFF80002FEF745FF6868AC
:101C1000002802D06868102805D34FF49671DFF8C9
:101C2000E801FEF739FFA868002802D0A868FF285D
:101C300005D940F22D11DFF8D001FEF72DFFE8683D
:101C4000102805D34FF49771DFF8BC01FEF724FF8D
:101C50002869801E0F2805D340F22F11DFF8A80154
:101C6000FEF71AFF6869801E102805D34FF498719B
:101C7000DFF89401FEF710FFA869002811D0A869C9
:101C8000B0F1805F0DD0A869B0F1005F09D0A869FC
:101C9000B0F1405F05D040F23111DFF86C01FEF782
:101CA000FBFE002E0BD0022E09D0042E07D0062EEC
:101CB00005D04FF49971DFF85001FEF7EDFE14EBFB
:101CC0008600406810F0404029686A6851EA0211B5
:101CD000AA6851EA0221EA6851EA02412A69521EC1
:101CE00051EA02516A69921E51EA0261AA691143DE
:101CF000084314EB86014860002070BDF8B504006D
:101D00000D0016001F000020002F08D0B7F5804FEF
:101D100005D040F26111DFF8F000FEF7BDFEB7F527
:101D2000804F6BD1DFF8E800844205D040F26711A4
:101D3000DFF8D400FEF7B0FE2868102805D34FF472
:101D4000B471DFF8C400FEF7A7FE6868002802D06F
:101D50006868102805D340F26911DFF8AC00FEF77F
:101D60009BFEA868002802D0A868FF2805D94FF478
:101D7000B571DFF89400FEF78FFEE868102805D3F0
:101D800040F26B11DFF88000FEF786FEA86900289C
:101D900011D0A869B0F1805F0DD0A869B0F1005FE3
:101DA00009D0A869B0F1405F05D04FF4B671DFF8F3
:101DB0005800FEF771FE002E0BD0022E09D0042E23
:101DC00007D0062E05D040F26D11DFF83C00FEF77B
:101DD00063FE54F82600DFF83C10084029686A6862
:101DE00051EA0211AA6851EA0221EA6851EA024165
:101DF000AA691143084344F8260003E07FF07040CD
:101E000044F826000020F2BD883500088000F0FF6D
:101E1000040100A00000F0CF2DE9F04F80460FF242
:101E2000847095B092461D46D0E90023CDE9132376
:101E300003AE00200391B0610DF1340900E0A2442B
:101E40000020ADF8020013AB4FF0FF3251460DF108
:101E5000020000F0B3FB0446012C05DA9AF80000FA
:101E6000441EA441E443E40FBDF8020025280CBF42
:101E7000A4F1010BA346BBF1010F0EDB574617F887
:101E8000011B0398C0470028039000F0CE81B06981
:101E9000401CBBF1010BB061F1D1BDF80200252857
:101EA00004D10020F0603061706105E00028C6D1E7
:101EB000B069BCE140F001001AF8011F2029F9D0F7
:101EC00023290DD02B2904D02D2906D030290AD062
:101ED0000CE040F0020080B2EEE740F00400FAE7C8
:101EE00040F00800F7E740F01000F4E72A290FD18E
:101EF0002968296051F8042B2960002A326204D530
:101F0000514240F00400316280B20AF1010A15E04A
:101F1000002131620CE0316A6FF00043994205D034
:101F200001EB810302EB4301303931620AF1010A0E
:101F30009AF80020A2F130010A29ECD39AF8001097
:101F40002E2903D04FF0FF31F16122E01AF8011F72
:101F50002A2908D1296829600AF1010A51F8042BBD
:101F60002960F26115E00021F1610CE0F1696FF088
:101F70000043994205D001EB810302EB4301303964
:101F8000F1610AF1010A9AF80020A2F130010A2950
:101F9000ECD3B0840FF214609AF8001000F01EFB2E
:101FA00008B11AF8010B8DF832009DF8320068284C
:101FB00004BF9AF80000682804D162208DF832002E
:101FC0000AF1010A0DA8B0601AF8014B252C13D0B4
:101FD000582C40D0632C00F09880642C18BF692CDA
:101FE00071D06F2C37D0702C2BD0732C0AD0752C5D
:101FF00018BF782C2FD0ABE00120F06025208DF8A1
:102000003400AFE09DF832006C282868286014D0B6
:1020100050F8044B28607460F769002F04D52046FF
:1020200000F0E8FA074606E03A460021204600F0B4
:10203000FDFA00B1071B376194E050F8042B2860CB
:102040007FE02868286050F8041B286002910DA8E2
:102050007060782155E09DF832006C280DD0712811
:1020600018BF6A2809D12868C01D20F007022A601D
:10207000D2E9000108322A6004E02968296051F899
:10208000040B296002909DF83200682802D102A852
:10209000008803E0622802D102A80078029096F836
:1020A0002400000728D5029830B344F02000782897
:1020B00022D1F068302100F80910401C411CF16069
:1020C00000F8094018E09DF83200294600F0B2F807
:1020D0000028029002D5F0682D2109E0B08C81071C
:1020E00002D5F0682B2103E0C00705D5F068202158
:1020F00000F80910401CF0600DA8F1680818706025
:10210000214602A800F0CFF92CE09DF832006C289F
:1021100009D00120F0602868286050F8041B28606E
:102120008DF834101EE02868286001AA50F8041BBE
:102130002860ADF804100020ADF806004FF0FF3025
:10214000F06102A9404600F09BF800280AD56CE037
:102150000120F06025208DF834001CB10220F060D1
:1021600089F80140306AF168401A7169401A316992
:10217000441A96F8240040070FD420208DF8000060
:10218000002708E001236A4602A9404600F0F2F960
:1021900000284AD17F1CA742F4DBF7680DF1340B0D
:1021A0000AE01BF8011B0398C047002803903CD0AD
:1021B000B069401CB0617F1E002FF2D130208DF835
:1021C00000004FF0000B776908E001236A4602A97E
:1021D000404600F0CFF940BB0BF1010BBB45F4DBEF
:1021E0003769D6F804B009E01BF8011B0398C04713
:1021F0000390D0B1B069401CB0617F1E002FF3D1B5
:1022000096F8240040077FF51BAE20208DF80000D3
:1022100000E07F1CA742BFF613AE01236A4602A965
:10222000404600F0A7F90028F3D04FF0FF3015B07A
:10223000BDE8F08F622815D068280CD06C2818BF34
:10224000742816D07A2814D10A680A6052F8040B50
:102250000A60002170470A680A6052F8040B0A609D
:1022600000B20BE00A680A6052F8040B0A6040B240
:1022700004E00A680A6052F8040B0A60C11770474C
:102280002DE9F44F0D4694B0D5F820A0BAF1000F17
:10229000804648BF6FF0004A00F0F4F9696A4018C0
:1022A00001900FF21030D0E90023CDE9022395F818
:1022B0002800400702D40198412805D240200DF1A2
:1022C00010090190002607E000F0E2F95FEA00093A
:1022D000F8D1AAE7AAEB040ABAF1010FC0F28B8089
:1022E0001498018802AA0DF1010000F029FA0028D3
:1022F000044600F18E801498008810B9641E00F125
:102300008880A24577DB286901992218914260D222
:102310006E624042A969401A6969461A95F8280018
:1023200040070FD420208DF80000002708E001238B
:102330006A462946404600F01DF9002869D17F1CF5
:10234000B742F4DB2F69CB460AE01BF8011B686833
:10235000C047002868605CD0E869401CE8617F1EC7
:10236000002FF2D130208DF800004FF0000BAF6944
:1023700009E001236A462946404600F0FBF80028A0
:1023800047D10BF1010BBB45F3DB6F69D5F808B002
:1023900009E01BF8011B6868C0476860C8B3E869BA
:1023A000401CE8617F1E002FF3D195F828004007FC
:1023B0000DD520208DF8000007E001236A4629464C
:1023C000404600F0D7F820BB7F1CB742F5DB002663
:1023D0002E61224628690DF10101484400F0BEF942
:1023E0002869201828611498801C1490801E008889
:1023F00000287FF46FAF686A2969401AA969401AFA
:102400006969A0EB010A95F82800400710D4002460
:102410000CE04FF0FF363EE068682021C0470028FE
:102420006860F6D0E869401CE861641C5445F3DB41
:102430002B694A462946404600F09CF80028E8D11E
:10244000AC69002709E068683021C047002868604F
:10245000DFD0E869401CE8617F1CA742F3DB6B69B1
:10246000AA682946404600F085F80028D1D195F8A1
:10247000280040070DD5002409E068682021C047E6
:1024800000286860C5D0E869401CE861641C5445B8
:10249000F3DB2E616E6204A881451CBF484600F044
:1024A00099F93046C3E6F0B4C2686F2908BF082422
:1024B00005D041F02003782B14BF0A2410241823E0
:1024C0000668642918BF6929374602D1002E48BF23
:1024D0007F425FB9056A4DB9082C27D190F82810C2
:1024E000090723D530211723D1751FE0B7FBF4F678
:1024F00004FB16773037FFB25D1E3A2FA4BFA1F15F
:10250000510C6744AF542B46370003D085689E18A2
:10251000B542EBD3082C09D190F82810090705D54E
:10252000995C302902D05B1E302199549A18826040
:10253000C3F11801026A4161914208DA511A8161BE
:102540004FF6EF72018D11400185F0BC7047002AF3
:102550000ED590F8282002F01402102A08D1426A01
:102560000369D21A8369D21A531A012BA8BF836157
:10257000F0BC7047F8B504460D4616461F460020CD
:1025800004E0E869401CE8617F1E002047B116F8AE
:10259000011B6868A04700286860F2D14FF0FF3047
:1025A000F2BD00000000000000000000686C747ABA
:1025B0004C0000000000000000000000F8B50446D8
:1025C0000D4616461F4600F045F93B463246294661
:1025D000204601B0BDE8F04000F053B90278C9B21E
:1025E0008A421AB11CBF10F8012FF9E718BF00206A
:1025F0007047000000F10103810704D010F8011BAF
:1026000089B18107FAD10268B2F10131914311F029
:10261000803F04BF50F8042FF6E710F8011B11B1FA
:1026200010F8011BFBE7C01A70470000C9B283070E
:1026300006D0521E22D310F8013B9942F7D11FE079
:10264000083A13D302F1040241EA012141EA0141AF
:1026500050F8043B121F21BF4B40A3F1013C2CEA70
:10266000030C1CF0803FF3D0C9B2001F083210F8F1
:10267000013B521E28BF91EA030FF8D818BF012072
:10268000401E704780B500F0E5F8012002BD000053
:1026900070B5054605F10F00C408C046C046E40009
:1026A000A54232D2082C04D2082402E0083000F0FF
:1026B00091F82248026811000CD1011D0A6802B38A
:1026C0001368A34238BF111DF8D310E01D68A5425E
:1026D0000DD2191D0B68002BF8D11268011D00E006
:1026E000191D0B6893420CD01D68A542F8D361B147
:1026F0000D682A68A2F10803A3420AD26A680A6038
:102700000FE000F0E1F80028D0D1C046C04600201C
:1027100070BD63190B60121B6E685E600B681A60F7
:102720002C60096800291DBF4A68002A091D002184
:102730000160C046C04605F1080070BD24020020BB
:1027400070B504460D46164600F084F83246294618
:102750002046BDE8704000F087B8000062B38B07E8
:1027600008D0521E11F8013B00F8013B00F0248014
:102770008B07F6D1830740F0208000BF103A07D3C3
:1027800030B4B1E83810103AA0E83810F9D230BCB3
:10279000530724BFB1E80810A0E8081044BF51F85F
:1027A000043B40F8043BD20724BF31F8022B20F849
:1027B000022B44BF0B7803707047083A07D3B1E887
:1027C0000810083A40F8043B40F804CBF7D253070E
:1027D000E4E7000000B9704738B5A0F108042068AC
:1027E000082833D310F0070F30D1C046C046184830
:1027F000416809B18C4203D26160446017E0194618
:102800004B680BB1A342FAD30B685D18AC421BD3E3
:10281000A54204D12268D2180A600C4607E04A6833
:102820001AB123681B199A420ED362604C6061682A
:1028300051B1226813198B4206D100230360086846
:102840008018206048686060C046C04631BD000006
:102850002402002080B5DFF80C0000F04BF88069FE
:1028600002BD00009400002030B430B90FF24800DF
:10287000D0E90045C2E900451BE00170012030BCF1
:10288000704730B431B90FF23800D0E90045C3E9E0
:1028900000450EE01AB930BC6FF00100704708B176
:1028A0000A7802800978481E804130BCC043C00FBE
:1028B0007047002030BC704700000000000000009E
:1028C00000000000000000000749086808B100206F
:1028D00070470648C008C00008600549C908C9001B
:1028E000091A0160704700BF38020020471200201B
:1028F000401400207047000010B50400002C01D1E6
:102900000120A1E0A06900282FD02068DFF83C1149
:10291000884214D02068DFF8381188420FD0206830
:10292000DFF8301188420AD02068DFF82C11884285
:1029300005D04FF48171DFF82401FEF7ADF8A069EE
:10294000002836D0A069B0F5807F32D0A069B0F5FC
:10295000007F2ED0A069B0F5407F2AD040F203114D
:10296000DFF8F800FEF798F823E02068DFF8DC10C5
:1029700088421ED02068DFF8D810884219D020681D
:10298000DFF8D010884214D02068DFF8D4108842D5
:102990000FD02068DFF8CC1088420AD02068DFF81A
:1029A000B810884205D040F20711DFF8B000FEF7FA
:1029B00073F8A068002809D0A068B0F5805F05D042
:1029C00040F20911DFF89400FEF766F8E06900288C
:1029D00009D0E069B0F5004F05D04FF48571DFF8FC
:1029E0007C00FEF759F894F83900002805D1002042
:1029F00084F83800200000F09FFA242084F8390081
:102A00002068C06830F400502168C860200000F0E1
:102A1000D1F82068006930F490402168086120688E
:102A2000406930F02A00216848612068C06850F48D
:102A300000502168C8600020E063202084F839003D
:102A4000202084F83A00002010BD00000010014052
:102A5000004400400048004000140140F8340008E1
:102A6000004C0040005000402DE9F04182B00400CD
:102A70000D0016001F005FF0000894F839002028B0
:102A80005DD1002D02D0B6B2002E01D1012057E059
:102A900094F93800012801D1022051E0012084F886
:102AA00038000020E063212084F83900FEF72BF87D
:102AB0008046A684E68403E02878216848606D1C7F
:102AC000E08C002828D0E08C401EE084A068B0F59F
:102AD000805F16D10097434600228021200000F03D
:102AE00031F8002801D003202AE02888C005C00D55
:102AF000216848602069002801D1AD1CE0E76D1C09
:102B0000DEE70097434600228021200000F01AF8FB
:102B10000028D1D0032013E0009743460022402133
:102B2000200000F00FF8002801D0032008E020204A
:102B300084F83900002084F83800002000E00220EA
:102B4000BDE8F6812DE9F04104000D0016001F00DC
:102B5000DDF81880206800682840A84201D10120D3
:102B600000E0002076B2B04221D118F1010FF1D07F
:102B7000B8F1000F04D0FDF7C6FFC01B8045E9D2B5
:102B80002068C06830F4D0702168C860206840694F
:102B90004008400021684861202084F83900202046
:102BA00084F83A00002084F83800032000E0002078
:102BB000BDE8F0812DE9F041040000206068DC49A7
:102BC000884204D340F68711D848FDF765FFE068D6
:102BD000002808D0E068B0F5005F04D040F6881106
:102BE000D248FDF759FF206900280CD02069B0F5C4
:102BF000806F08D02069B0F5C06F04D040F689110D
:102C0000CA48FDF749FF60694FF6F371084202D1E7
:102C10006069002804D140F68A11C448FDF73CFFE2
:102C20002068006930F44050E16808432168086179
:102C30002068C068BF490840A168226911436269E1
:102C40001143E269114308432168C8602068406964
:102C500030F44070A169084321684861E069B0F52B
:102C6000004F40F0B0802068AE49884203D0206811
:102C7000AD49884253D1FDF7D9FE8046FDF7D6FE17
:102C80000600FDF7D3FE0700FDF7D0FE0500FDF7B7
:102C9000CDFE192101FB08F162685200B1FBF2F18F
:102CA0006422B1FBF2F1192202FB06F263685B00B9
:102CB000B2FBF3F2192303FB07F366687600B3FB5C
:102CC000F6F36426B3FBF6F3642606FB1322D20068
:102CD00032326423B2FBF3F212F0F802520012EB2C
:102CE0000111192202FB05F263685B00B2FBF3F2EB
:102CF0001923584363685B00B0FBF3F06423B0FB17
:102D0000F3F0642303FB1020C00032306422B0FBD8
:102D1000F2F010F0070040182168886000E1FDF72C
:102D200075FE8046FDF772FE0600FDF76FFE070098
:102D3000FDF76CFE0500FDF769FE192101FB08F1A6
:102D400062685200B1FBF2F16422B1FBF2F1192288
:102D500002FB06F263685B00B2FBF3F2192303FB8C
:102D600007F366687600B3FBF6F36426B3FBF6F36D
:102D7000642606FB1322D20032326423B2FBF3F244
:102D800012F0F802520012EB0111192202FB05F2B7
:102D900063685B00B2FBF3F21923584363685B007E
:102DA000B0FBF3F06423B0FBF3F0642303FB1020CB
:102DB000C00032306422B0FBF2F010F0070040187F
:102DC00021688860ACE020685649884203D02068BA
:102DD0005549884252D1FDF729FE8046FDF726FE6F
:102DE0000600FDF723FE0700FDF720FE0500FDF7B6
:102DF0001DFE192101FB08F162689200B1FBF2F19E
:102E00006422B1FBF2F1192202FB06F263689B0017
:102E1000B2FBF3F2192303FB07F36668B600B3FBBA
:102E2000F6F36426B3FBF6F3642606FB13221201C5
:102E300032326423B2FBF3F212F0F00212EB011112
:102E4000192202FB05F263689B00B2FBF3F219231F
:102E5000584363689B00B0FBF3F06423B0FBF3F0CE
:102E6000642303FB1020000132306422B0FBF2F037
:102E700010F00F0040182168886051E0FDF7C6FD92
:102E80008046FDF7C3FD0600FDF7C0FD0700FDF716
:102E9000BDFD0500FDF7BAFD192101FB08F16268CF
:102EA0009200B1FBF2F16422B1FBF2F1192202FBB4
:102EB00006F263689B00B2FBF3F2192303FB07F3EE
:102EC0006668B600B3FBF6F36426B3FBF6F364263C
:102ED00006FB1322120132326423B2FBF3F212F02A
:102EE000F00212EB0111192202FB05F263689B004C
:102EF000B2FBF3F21923584363689B00B0FBF3F075
:102F00006423B0FBF3F0642303FB10200001323094
:102F10006422B0FBF2F010F00F00401821688860C6
:102F2000BDE8F0810010014000140140F8340008B1
:102F3000A137A000F369FFFF00B587B000682E49F4
:102F4000884221D1002000902C48006850F01000E9
:102F50002A4908602948006810F010000090009885
:102F60004020019002200290012003900320049051
:102F70000720059001A92248FEF7D4FA802001908D
:102F800001A91F48FEF7CEFA07B000BD80B50020AA
:102F900000901C48006850F002001A490860194867
:102FA000006810F00200009000981348164908606D
:102FB0005FF4E13014494860002013498860002024
:102FC0001149C8600020104908610C200E49486171
:102FD00000200D49886100200B49C8610A48FFF7AD
:102FE0008BFC01BD01B54FF6FF730122694606480F
:102FF000FFF73AFD009802BD00100140443802403E
:103000000004024030380240E401002000B593B0D3
:10301000002000904348006850F08050414908600B
:103020004048006810F08050009000980020009008
:103030003D48006850F480403B4908603A480068C9
:1030400010F4804000900098012006905FF48030DA
:10305000079002200C905FF480000D9008200E90E5
:103060004FF4A8700F90022010900720119006A82E
:10307000FDF78AF80F2001900220029000200390B3
:103080004FF4A05004904FF480500590052101A802
:10309000FDF707FBFDF76DFCFDF7B5FC4FF47A710A
:1030A000B0FBF1F0FDF7F9FD0420FDF7FAFD002279
:1030B00000215FF0FF30FDF7C2FD13B000BD80B509
:1030C000FDF7ECFCFFF7A2FFFFF760FFFEF7B7F894
:1030D0000100164800F02EF81F2000904FF4F07306
:1030E0004FF4A07200210020FEF7EFF901224FF407
:1030F00000710F48FEF706FC4FF6FF7000F02CF849
:103100004FF47A70FDF702FD00F036F880B20090BF
:103110004FF4F0734FF4A07200210020FEF7D5F9B0
:10312000EEE70000403802400070004078370008A9
:10313000000802400EB400B582B003A90091024617
:103140006B460121034878440A30FEF765FE06BC51
:103150005DF810FB0306000010B504460448FFF7B5
:10316000C9FB002101700348FFF7C4FB046010BDD8
:103170000000002004000020F8B5344F3846FFF767
:10318000B9FB0446381DFFF7B5FB054607F10800FB
:10319000FFF7B0FB064607F10C00FFF7ABFB237807
:1031A0002B492C4A002B40D12B6802FB03132B60C8
:1031B000082702FB03132B6002FB03132B6002FBA7
:1031C00003132B6002FB03132B6002FB03132B6022
:1031D00002FB03132B6002FB03132B600346D5F89D
:1031E00000C002FB0C1CC5F800C043F804CB7F1ED6
:1031F000D5F800C002FB0C1CC5F800C043F804CB96
:10320000D5F800C002FB0C1CC5F800C043F804CB85
:10321000D5F800C002FB0C1CC5F800C043F804CB75
:10322000DDD1C36F3360012323702B6802FB0311D0
:103230002960317801F01F0150F8212032602A689E
:1032400040F82120306880008008F2BD0000002096
:103250005FF36E3C0D661900816807E00268116833
:10326000536889185B18C36008320260C2689142D3
:10327000F4D04A1C8260087870472DE9FF4D00F1B8
:103280000801009100270268520801EBC201019178
:10329000B8460021029103910168490800EBC10181
:1032A000406800F0010501F10804400804EBC00685
:1032B00030E06846FFF7D0FF4FFA80FA0AE0009846
:1032C000016808180099029049680818039000984E
:1032D00008300090029803998842F0D010F801BBA2
:1032E000029047450CD1B44208BF00F01DF8276892
:1032F00005B14F44606800EB070808344745F2D039
:10330000BAF1000F07F801BB0AD51AF1010AE8D19A
:103310004745CED1B442CCD1304604B0BDE8F08DA3
:10332000BAF1010AD6D5F3E7012000F001B8000098
:1033300080B5C046C046024A11001820ABBEFBE76C
:1033400026000200483A5C42616964754E65746407
:1033500069736B446F776E6C6F61645CD0DEB8C468
:10336000545854CEC4BCFE5C312E20C8EDBCFEC9FE
:10337000E8BCC6D6AEBBF9B1BEC2E3BBFAC0FDB372
:10338000CC5C595346345F48414C2D3036362E20A4
:103390004C43442DD2BABEA7CFD4CABE5C44726996
:1033A000766572735C53544D3332463478785F4897
:1033B000414C5F4472697665725C5372635C7374EE
:1033C0006D3332663478785F68616C5F636F7274F6
:1033D00065782E6300000000483A5C4261696475BC
:1033E0004E65746469736B446F776E6C6F61645C77
:1033F000D0DEB8C4545854CEC4BCFE5C312E20C8B4
:10340000EDBCFEC9E8BCC6D6AEBBF9B1BEC2E3BBDB
:10341000FAC0FDB3CC5C595346345F48414C2D3063
:1034200036362E204C43442DD2BABEA7CFD4CABEC6
:103430005C447269766572735C53544D3332463422
:1034400078785F48414C5F4472697665725C53726C
:10345000635C73746D3332663478785F68616C5F77
:103460006770696F2E630000483A5C426169647559
:103470004E65746469736B446F776E6C6F61645CE6
:10348000D0DEB8C4545854CEC4BCFE5C312E20C823
:10349000EDBCFEC9E8BCC6D6AEBBF9B1BEC2E3BB4B
:1034A000FAC0FDB3CC5C595346345F48414C2D30D3
:1034B00036362E204C43442DD2BABEA7CFD4CABE36
:1034C0005C447269766572735C53544D3332463492
:1034D00078785F48414C5F4472697665725C5372DC
:1034E000635C73746D3332663478785F68616C5FE7
:1034F0007263632E63000000483A5C426169647540
:103500004E65746469736B446F776E6C6F61645C55
:10351000D0DEB8C4545854CEC4BCFE5C312E20C892
:10352000EDBCFEC9E8BCC6D6AEBBF9B1BEC2E3BBBA
:10353000FAC0FDB3CC5C595346345F48414C2D3042
:1035400036362E204C43442DD2BABEA7CFD4CABEA5
:103550005C447269766572735C53544D3332463401
:1035600078785F48414C5F4472697665725C53724B
:10357000635C73746D3332663478785F68616C5F56
:10358000756172742E630000483A5C42616964752B
:103590004E65746469736B446F776E6C6F61645CC5
:1035A000D0DEB8C4545854CEC4BCFE5C312E20C802
:1035B000EDBCFEC9E8BCC6D6AEBBF9B1BEC2E3BB2A
:1035C000FAC0FDB3CC5C595346345F48414C2D30B2
:1035D00036362E204C43442DD2BABEA7CFD4CABE15
:1035E0005C447269766572735C53544D3332463471
:1035F00078785F48414C5F4472697665725C5372BB
:10360000635C73746D3332663478785F6C6C5F66BC
:10361000736D632E630000000F48006850F00100D6
:103620000D49086000200D4908600B4800680C49EE
:103630000840094908600B480B49086006480068C3
:1036400030F48020044908600020084908605FF0D9
:10365000006007490860704700380240083802409F
:10366000FFFFF6FE10300024043802400C38024000
:1036700008ED00E019E050F8041BCB0744BFA9F1A6
:1036800001035918121F0023042A41F8043BF9D200
:103690005FEA827C0B4604D54FF0000CA1F800C015
:1036A0009B1CD10744BF0021197050F8042B002A3D
:1036B000E1D1704710B5074979441831064C7C4474
:1036C000163404E00A68081D511888470146A142D3
:1036D000F8D110BD080000003000000099FFFFFF86
:1036E000F800000044010020000000008FFBFFFFF5
:1036F0000200000002000000040200002F00000091
:1037000000000020440100007047FEE7FEE7FEE7EE
:10371000FEE770477047704780B5FDF7EEF9FDF79B
:10372000EFFA01BD7047000000F00BF8002801D04F
:10373000FFF7C0FF0020C046C046FFF7C0FC00F006
:1037400002F80120704700F001B800000746384633
:10375000FFF7EEFDFBE738B504460D46284600F0BE
:1037600005F8A84218BF0024204632BD0149FFF7E2
:1037700039BC00BF000100204C43442049443D3087
:1037800078253038580A00000000000000000000D2
:103790000102030406070809014880470148004761
:1037A00019360008A9370008C046C046C046C046C2
:1037B000FFF7BAFF0000000001020304FFF7FEBF9D
:1037C000FFF7FEBFFFF7FEBFFFF7FEBFFFF7FEBF2D
:1037D000FFF7FEBFFFF7FEBFFFF7FEBFFFF7FEBF1D
:1037E000FFF7FEBFFFF7FEBFFFF7FEBFFFF7FEBF0D
:1037F000FFF7FEBFFFF7FEBFFFF7FEBFFFF7FEBFFD
:10380000FFF7FEBFFFF7FEBFFFF7FEBFFFF7FEBFEC
:10381000FFF7FEBFFFF7FEBFFFF7FEBFFFF7FEBFDC
:10382000FFF7FEBFFFF7FEBFFFF7FEBFFFF7FEBFCC
:10383000FFF7FEBFFFF7FEBFFFF7FEBFFFF7FEBFBC
:10384000FFF7FEBFFFF7FEBFFFF7FEBFFFF7FEBFAC
:10385000FFF7FEBFFFF7FEBFFFF7FEBFFFF7FEBF9C
:10386000FFF7FEBFFFF7FEBFFFF7FEBFFFF7FEBF8C
:10387000FFF7FEBFFFF7FEBFFFF7FEBFFFF7FEBF7C
:10388000FFF7FEBFFFF7FEBFFFF7FEBFFFF7FEBF6C
:10389000FFF7FEBFFFF7FEBFFFF7FEBFFFF7FEBF5C
:1038A000FFF7FEBFFFF7FEBFFFF7FEBFFFF7FEBF4C
:1038B000FFF7FEBFFFF7FEBFFFF7FEBFFFF7FEBF3C
:1038C000FFF7FEBFFFF7FEBFFFF7FEBFFFF7FEBF2C
:1038D000FFF7FEBFFFF7FEBFFFF7FEBFFFF7FEBF1C
:1038E000FFF7FEBFFFF7FEBFFFF7FEBFFFF7FEBF0C
:1038F000FFF7FEBFFFF7FEBFFFF7FEBFFC000001B2
:10390000810084001F0204010194010020E40100F1
:10391000209401002094010020940100203D01002A
:0B3920002024010020DF000224F4003E
:04000005080037A90F
:00000001FF
