:020000040800F2
:1000000080B8012055020008714A01087F420108AA
:100010006D4A010815190108C555010800000000C6
:100020000000000000000000000000009D0100082A
:100030006B29010800000000F1010008134E0108BF
:100040006F0200086F0200086F0200086F020008CC
:100050006F020008DF4A01086F0200086F02000803
:100060006F0200086F0200086F0200086F020008AC
:100070006F0200086F0200086F0200086F0200089C
:100080006F0200086F0200086F0200086F0200088C
:100090006F0200086F0200086F0200086F0200087C
:1000A0006F0200086F0200086F0200086F0200086C
:1000B0006F0200086F0200086F0200086F0200085C
:1000C0006F0200086F0200086F0200086F0200084C
:1000D0006F0200088D5401086F0200086F020008CB
:1000E0006F0200086F0200086F0200086F0200082C
:1000F0006F0200086F0200086F0200086F0200081C
:100100006F0200086F0200086F0200086F0200080B
:100110006F0200086F0200086F0200086F020008FB
:100120006F0200086F0200086F0200086F020008EB
:100130006F0200086F0200086F0200086F020008DB
:100140006F0200086F0200086F0200086F020008CB
:10015000E11901086F0200086F0200086F02000831
:100160006F0200086F0200086F0200086F020008AB
:100170006F0200086F0200086F0200080000000014
:100180006F0200086F020008DFF80CD000F0F8F8EA
:1001900000480047E164010880B801202A4B196833
:1001A0000868B0E8F04F80F30988BFF36F8F4FF015
:1001B000000080F3118870470000000006480068C6
:1001C000006880F3088862B661B6BFF34F8FBFF353
:1001D0006F8F00DF00BF00BF08ED00E0DFF80C000C
:1001E000016841F470010160704700BF88ED00E0D4
:1001F000EFF30980BFF36F8F134B1A681EF0100FD7
:1002000008BF20ED108A20E9F04F106008B44FF0CD
:10021000500080F31188BFF34F8FBFF36F8F17F03B
:100220001FF94FF0000080F3118808BC19680868B6
:10023000B0E8F04F1EF0100F08BFB0EC108A80F34A
:100240000988BFF36F8F704734000020EFF30580FB
:10025000704700000648804706480047FEE7FEE773
:10026000FEE7FEE7FEE7FEE7FEE7FEE7FEE7FEE766
:10027000E94E01088901000810B5441A034694426A
:1002800009D28418114403E011F8013D04F8013D3E
:10029000521EF9D210BD40EA0104A40703D009E0C0
:1002A00010C9121F10C3042AFAD203E011F8014B3F
:1002B00003F8014B521EF9D210BDD2B201E000F892
:1002C000012B491EFBD270470022F6E710B51346FA
:1002D0000A4604461946FFF7F0FF204610BD421CAF
:1002E00010F8011B0029FBD1801A7047034611F852
:1002F000012B00F8012B002AF9D1184670472DE98F
:10030000F05F0546002092469B4688460646814699
:1003100040241BE0284641464746224600F020F88C
:1003200053465A46C01A914110D3114618462246E8
:1003300000F038F82D1A67EB01084F4622460120DD
:10034000002100F02FF817EB00094E41201EA4F108
:100350000104DFDC484631462A464346BDE8F09FAB
:10036000202A04DB203A21FA02F00021704721FA0A
:1003700002F3D040C2F12002914008431946704771
:10038000064C074D06E0E06840F0010394E80700E2
:1003900098471034AC42F6D3FFF7FAFE68BD010867
:1003A00088BD0108202A04DB203A00FA02F100206F
:1003B00070479140C2F1200320FA03F319439040A3
:1003C000704770B58D1810F8014B14F0030201D17D
:1003D00010F8012B231106D110F8013B03E010F8AF
:1003E000016B01F8016B521EF9D1ABB110F8012B72
:1003F00004F00C048A1A0C2C03D0A2EB84129B1C70
:1004000008E010F8014BA2EB0422F8E712F8014BC8
:1004100001F8014B5B1EF9D5A942D4D3002070BD71
:1004200037B5446805460146204608F0F9FF002824
:100430005CD02B680F2B16D004DC0B2B22D00E2B9C
:1004400032D050E0282B47D0B3F5107F05D0112BC8
:1004500049D1274B1B6813B948E0264B1B68294636
:100460002046984742E0204602F0A4FD02AB43F844
:10047000040D426E1568184602F000FEB5B3204622
:10048000A84733E0204602F095FD02AC01906830A9
:1004900002F0F2FC54F8040D03216C3002F0F9FC78
:1004A000204602F0EBFD1EE0EA680CCA0D2A02D0DD
:1004B000202A06D010E0002B0EDD20460FF0B4F805
:1004C00005E0002B03DD20460FF0AEF80EE0022120
:1004D00020460FF0C1F809E0EB6823B94FF48071B2
:1004E000204608F079FF284609F0C8FB03B030BD6C
:1004F000B4A60120E0000020F0B5B0F90C50B0F92E
:100500001070B0F90E60044687B01D44A369B0F9BD
:100510000A000493B4F908300393638A029300231A
:100520008DE80A0010443B463246294600F008F8A0
:100530006168054600F08CF9284607B0F0BD000060
:100540002DE9F04186B0984605460E46174603F061
:10055000F1FC109C1A4B02930D9B01934C340C9BA5
:100560000093039443463A463146284609F0C2FABE
:100570008046F8B102F01EFD124E0F990590102230
:10058000351D09F0EDF806AF0FCD57F804ED0EF16B
:1005900034040FC40FCD0FC495E80F0084E80F009A
:1005A000736BCEF86430384602F068FD736B4046DA
:1005B0005B68984705F076FF404606B0BDE8F081DD
:1005C00021040008E00000202DE9F0418B4B8268F7
:1005D00053F822504368052B88B004460ED006DC41
:1005E000002B40F0078100680AF0E8F902E1062BD1
:1005F00000F08980122B00F0AA80FBE0EE69002E4B
:1006000051D0AB6803936B6802932B6801930096FB
:1006100010300FC806F016FD002655F8260005F02C
:10062000B1FBEB69A26921696069D21A19443044AF
:1006300003F0A8F9EB69A2692169E069D21A1944AB
:10064000801B03F09FF9EB69E26961692069D21AA6
:100650001944304403F05AFAEB69E2696169A06910
:10066000D21A801B1944013603F050FA022ED4D15D
:10067000A86805F087FBE96920696669E3694218A3
:100680005B1A013A3144023003F0C6FAE969A26903
:100690006669E369501A5B1A023A3144013003F08B
:1006A000BBFAEE690FE055F8260005F06BFB04F18C
:1006B00010000FC89B1B921B31443044013603F0DD
:1006C000DDF9022EEFD16169E3692F69A269206922
:1006D0000197EF6800970B44921B30445B10023186
:1006E00003F016F904F114010EC92069AC690194F4
:1006F00019446C6900944910023B921B013130444B
:1007000003F006F976E0006802F054FC04902068DB
:100710000AF076FD049B30B1A26852B91A6F00321C
:1007200018BF012206E05A6F002A0CBF00220222E5
:1007300000E0002203EB820304A8DD6E02F09EFCC1
:1007400000231A462168284602F09AFE52E000680B
:1007500002F030FC08AED0F8688046F8100DB8F111
:10076000000F44D0A368B0F95C7023B1032B0CBF19
:100770000223002300E0012300EB8303406D1C6C87
:1007800005F01EFB204605F0FDFA06A803F0B4FABA
:10079000A98BBDF81C30BDF818205B1AADF81C30D1
:1007A000BDF81A300233ADF81A30BDF81E30023BE6
:1007B000ADF81E30049B0A44ADF81820B3F95E1062
:1007C000B3F9602006A804F0B8FB304602F056FCEE
:1007D000022005F051FB404602F0ECFB08AC3A4623
:1007E00044F80C0D06A902F059FF204600E03046FF
:1007F00002F044FC002008B0BDE8F08158A60108D2
:1008000037B50D46044680B103F094FB204602F054
:10081000D1FB02AB456543F8040D184602F02EFCEF
:10082000204609F07AFD05F03DFE03B030BD000022
:10083000032930B509D8054B044653F821500FCC95
:100840000FC594E80F0085E80F0030BD58A60108D9
:1008500073B50D46044628B303F06CFB204602F046
:10086000A9FB866E00906846019602F007FC2946B7
:1008700001A807F00BF800280CBF012500250ED0B9
:10088000019B9E4208D0204602F094FB019B009001
:100890008366684602F0F2FB204609F03EFD05F053
:1008A00001FE00E00125284602B070BD2DE9FF479A
:1008B0000D460446002800F0E98003F03BFB20468B
:1008C00002F078FB04AED0F858A046F80C0D90F872
:1008D0005490D0F83480C76C304602F0CFFBBAF1A8
:1008E000000F03D029462046D047CAE0122D00F061
:1008F000C48005DC102D3CD009DC082D3BD057E02E
:100900001D2D43D01E2D3DD0132D51D114E0B8F133
:10091000000F00F0B680404602F04CFB04AE3946B2
:10092000054646F8040D05F0A7FC0544284605F0E9
:1009300043FC2B46012214E0B8F1000F00F0A18027
:10094000404602F037FB04AE3946054646F8040D32
:1009500005F092FC0544284605F02EFC2B464FF08E
:10096000FF32014620460BF087F9304602F086FB45
:1009700087E0791E82E0002F00F08380791E2046F8
:1009800000F0B5FB20460BF083FB7AE0204602F036
:1009900011FBB9F1010F019002D180F854A0E4E7F6
:1009A000012380F854303946204600F0A0FBDCE7F4
:1009B0001F2D66DDB9F1000F02D020460BF068FB59
:1009C000204602F0F7FAB0F938300290002B80464A
:1009D00016DD406B60B102F0EDFA0DF1100949F837
:1009E000040D06F0A7FD0646484602F047FB00E06E
:1009F0000646B8F938008642ACBF0026012600E062
:100A000001260DF1100858F8083D4046D3F84C90E7
:100A100002F034FBAEB3ADB2284605F0FBFB8246D4
:100A2000014620460EF0C8FC58B3204602F0C2FA38
:100A3000466B0290404602F021FB304602F0BAFAC3
:100A40000DF110084946064648F8040D05F014FC5F
:100A500006443046FFF743FC3146421C06EB0A00D1
:100A6000FFF70AFC2946304605F094FB404602F0A9
:100A700005FB0521204609F017FD791C204600F0F2
:100A800036FB204609F049FC05F00CFD04B0BDE83A
:100A9000F087000073B54468054620460AF0B0FBB5
:100AA00029460646204608F0BBFC00286BD02B6880
:100AB0000F2B3FD004DC0B2B41D00E2B4CD05FE032
:100AC00040F21312934203D0B3F5107F21D057E0C8
:100AD000204609F0B5FD204602F06CFA02AE46F859
:100AE000040D90F8563083F0040380F856303046F9
:100AF00002F0C4FA002120460EF0BEFE204602F0AD
:100B000059FA00210190D0F8840009F07DFD3046AB
:100B10001FE0EB684BB11A7A2AB11968204600F041
:100B20000BF9012102E0022100E00321204609F037
:100B3000BBFC25E0012120460EF09EFE23E020466E
:100B400002F038FA02AC44F8040D343002F094F9A3
:100B5000204602F093FA13E096B1EB685A68002A37
:100B60000EDD1968A1F10902192A05D8012303FA3B
:100B700002F2064B13401BB92046FFF797FE02E036
:100B8000284609F07BF802B070BD00BF13000403D3
:100B900010B586B0002405940C9C04940B9C03941F
:100BA0000A9C0294099C0194089C009400F028F887
:100BB00006B010BDF0B5B0F90C50B0F91070B0F936
:100BC0000E60044687B01D44A369B0F90A0005937E
:100BD00063690493B4F908300393638A0293002392
:100BE0008DE80A00104429463B46324600F008F8DA
:100BF000054610B1618A00F02BFA284607B0F0BD17
:100C00002DE9F04387B09046994605460F46129E5F
:100C100003F090F9139C234B0293603403940F9CD0
:100C20000E9B009344F48054424601944B4639464F
:100C3000284608F05FFF804600282DD002F0BAF960
:100C4000194D11990590102208F08AFD0FCD059FCE
:100C500007F160040FC40FCD0FC42B68236001237C
:100C600087F85530731C18BF0123002ECCBF36B255
:100C7000082687F8883000237B877B633E8705A89A
:100C800002F0FCF9711C40460EF06AF9044618B9EE
:100C9000404609F02FF8A04605F004FC404607B096
:100CA000BDE8F083950A000898010020014B986880
:100CB000704700BF9801002013B5044668B103F0E7
:100CC00039F9204602F076F902AB846C43F8040D42
:100CD000184602F0D3F905F0E5FB204602B010BD3E
:100CE00073B50C461646054698B103F023F928461D
:100CF00002F060F9019038B1022C05D81E3440F89A
:100D00002460284609F009FB01A802F0B7F905F0B4
:100D1000C9FB02B070BD38B504460D4603F00AF9B0
:100D200034B12046294600F0E2F9204609F0F5FAF0
:100D3000BDE8384005F0B6BB2DE9F3410F46054646
:100D4000002853D003F0F6F8284602F033F901905A
:100D5000406B002845D002F02DF9019B0090986E61
:100D600005F02EF80646284609F0AEF9044600982C
:100D700003F006F8019A136E03F00303012B80467B
:100D800007D0022B0AD1221A013292FBF3F3FC1A8C
:100D90000AE0231A546E01341C1B04E0D36A546E1B
:100DA0001B6801341C443C1B009806F0C3FB002C5C
:100DB000024601DA002108E0A04501DA014604E01C
:100DC0002146009806F052FB0146284600F08FF9B4
:100DD000684602F053F9304604F0F2FF284609F065
:100DE0009CFA01A802F04AF905F05CFB02B0BDE8EC
:100DF000F08100002DE9F34704468A4691461D46DE
:100E00000A9F9DF82C8003F095F8002C4FD02046C7
:100E100002F0D0F802AE284B8365284BC36546F834
:100E2000040D0023C0F848A0C36490F888A0C0F85F
:100E30003C900123056480F8447080F8568080F867
:100E40005430304602F01AF9BAF1000F16D0394684
:100E500028460DF0ADFD3946054648460DF0A8FD83
:100E60000FB10130013518F0010F18BF013585426F
:100E70002946B8BF0146204600F03BF8204610F056
:100E80008DF9204602F096F8019000F017F90C4B0E
:100E90001B78834205D1019BD96C2046013100F0BB
:100EA00026F9304602F0EAF8204609F036FA05F055
:100EB000F9FA02B0BDE8F087D5B700089D11010826
:100EC00034A8012073B50E46054680B103F032F810
:100ED000284602F06FF802AC866644F8040D2846F6
:100EE00009F01BFA204602F0C9F805F0DBFA02B05F
:100EF00070BDF7B50D460446A8B303F01BF82046B5
:100F000002F058F8B0F9383002AEAB4246F8080D9E
:100F100024D0478F12DD406B80B102F04BF8019076
:100F200006F008FB854206DA2946019805F0A4F987
:100F3000019B00221A5401A802F0A0F8304602F0EA
:100F40009DF8E91B013120460EF00AF8204602F018
:100F500031F800900587204609F0DFF9304602F0AD
:100F60008DF805F09FFA03B0F0BD00002DE9F743BE
:100F70000D460446002865D002F0DCFF204602F052
:100F800019F802AF466B47F8080DB0F938803846BB
:100F900002F074F8002D43D066B1304602F00AF832
:100FA0000DF1080949F8040DFFF799F9461C484668
:100FB00002F064F8284606F0BDFA8045A8BF8046D6
:100FC0004146284605F058F900F10109C6EB090130
:100FD00020460EF0F1F980B3204601F0EBFF0090BF
:100FE000406B01F0E7FF194B01904A461B68294608
:100FF0009847019B9944002309F8013C009BB3F9F1
:101000003820C3F84C80424506D193F8541001298A
:1010100004BF02F1FF32DA6401A802F02FF809E000
:10102000204601F0C7FF0090343001F025FF009BFF
:101030005D87DD64384602F021F8204609F06DF93D
:1010400005F030FA03B0BDE8F08300BFD002002005
:1010500037B50D46044678B102F06CFF204601F02A
:10106000A9FF019018B10566204609F056F901A8BC
:1010700002F004F805F016FA03B030BD73B50D4662
:101080001646044698B102F055FF204601F092FF43
:10109000019038B1022D05D800EB8500C6662046C8
:1010A00009F03BF901A801F0E9FF05F0FBF902B0F6
:1010B00070BD10B1002210F00FB8704773B506462E
:1010C000406B80B101F076FF02ADF16C45F8040D84
:1010D000044605F0D1F8204405F06EF80446284691
:1010E00001F0CCFF00E00446204602B070BD13B50D
:1010F0000C4601F05FFF0090406BF0B101F05AFF29
:10110000019006F017FA009BB3F9382093F85410B9
:1011100024EAE474002918BF013A9442A8BF144697
:10112000A042DA6CA8BF204682424FF0000218BFEE
:10113000D8641A6501A801F0A1FF684601F09EFF7E
:1011400002B010BD2DE9F047446886B00546204640
:1011500001F030FFC76D0090D0F888A0D0F8806013
:10116000D0F86880B0F87C9007B13F68684601F01D
:1011700085FFBAF1000F09D0DAF804302846984705
:10118000002840F01A81DAF800A0F2E72B68172B4C
:1011900000F0898018DC0F2B43D006DC0B2B00F00D
:1011A000FA800D2B00F0BD80FFE0112B1BD0142B1B
:1011B00040F0FB8001A9204600F0D0FC02AB03CB3D
:1011C000EA6810605160F8E0262B6FD005DC1E2B1A
:1011D0007AD0202B00F0B380E7E02A2B13D0B3F5B0
:1011E000107F24D0E1E02046EE6801F0E3FE01909C
:1011F0003389012B02BFB0F87C3043F48073A0F830
:101200007C3001A8CFE0204601F0D4FEEB680090CE
:1012100013B1C0F8843002E0D0F88430EB60684647
:101220003EE0002F00F0C1802046B847BDE02046D8
:10123000D5F80C8001F0BEFE06AFB0F87C6047F830
:10124000140D384601F01AFFEB68002B00F0B58052
:1012500098F80830CBB1330702D4204609F006FBDA
:10126000204608F0D3FB06F48873B3F5887F40F07E
:10127000A48006F080039BB2002B40F09E800522E4
:101280004146204609F06AFA97E0204601F092FEB6
:10129000B0F87C30019023F48073A0F87C3038469D
:1012A00001F0ECFE89E0C5F80C8086E0EB68022BCB
:1012B00040F0838006A90493272341F8143DA868D1
:1012C00003940AF061F978E0EF68012F24D13046E9
:1012D00009F090F858B1304609F0C8FA304608F0E5
:1012E00039FF88B13946304608F03FF90CE04046F6
:1012F00009F010FB0646204601F05CFE0090C0F8A5
:101300008060684601F0BAFE0121204600F0E6FA4E
:10131000002E52D1EE6050E05146204600F0DEFA39
:101320004BE019F0080F40D1EB68DB68002B3CD094
:101330001B7A002B39D0204609F098FA35E0EE6888
:101340009EB32146706809F041FF80B1012120461B
:101350000FF058FC2146706809F027FF28B320469B
:1013600001F028FE06AB726843F8140D0FE05146F9
:1013700020460FF047FC2146306809F016FFA0B167
:10138000204601F017FE06AB326843F8140DC0F892
:101390008020184607E0204601F00CFE00907030D7
:1013A00001F06AFD684601F069FE2946204608F012
:1013B00037F810B1284608F061FC06B0BDE8F087A8
:1013C000F0B5B0F90C50B0F91070B0F90E600446E9
:1013D00089B01D44A369B0F90A0006930E9B0593DA
:1013E00063680493B4F908300393638A029300237B
:1013F0008DE80A0010443B463246294600F002F8C8
:1014000009B0F0BD2DE9F0478AB00E46DDF84C90EA
:1014100098460546174602F08DFD189C394B0293FD
:1014200049F4805301936034129B00933146039436
:1014300043463A46284608F05DFB064600285BD046
:1014400001F0B8FDDFF8C4A015990490302255468C
:1014500008F086F90DF128080FCD58F8187D07F12E
:1014600034040FC40FCD0FC495E80300179B84E824
:1014700003007B66149BA7F87C300024DAF8283040
:10148000FB65C7F88040FC66C7F88840404601F01D
:10149000F5FD05A9304600F061FBBDF91A10BDF954
:1014A0001800BDF91E30BDF91C200394164C02949F
:1014B0005B1A121A41F282740132019401330096D0
:1014C00008F018FBDAF8283004465B683046984785
:1014D000304601F06FFD04908466404601F0CEFD79
:1014E00042F2040309EA030313B9304608F094FCFE
:1014F0001699304600F060FA04F0D4FF30460AB086
:10150000BDE8F08745110008911E0008BC010020CD
:101510002DE9F041044690B0006800F0B5F9A54B04
:10152000666803F12C05002818BF1D461C2E00F22A
:10153000A281DFE816F08D01A001A001A001A001A9
:101540002701A001A001A001A001A0012700A00186
:10155000A0017A01A001A001A0014101A001A00108
:1015600023001D001F002100A001A001A0012500F3
:10157000EE6985E12E6A83E16E6A81E1AE6A7FE100
:101580006E697DE11C2320680893079001F012FD2D
:10159000036D059007A89847064605A801F06EFD63
:1015A000012E11DDAB6802936B6801932B680093E9
:1015B0006269A1692069334605F08AFC2769A3693D
:1015C0003744C6EB03082CE0286804F0DBFB2169F4
:1015D000EA6960690A44013A02F0D4F9A269E9694A
:1015E0006069511A013102F0CDF96769206901374C
:1015F000394602F0F5F93946A06902F0F1F9686858
:1016000004F0C0FB20693946013002F0E9F9A06915
:101610003946013802F0E4F92769A3690237A3F1DA
:101620000208286804F0AEFB42463946606902F0C1
:10163000A9F9686804F0A6FB6069424639460130A2
:1016400002F0A0F96B6A022B0ADDA86804F09AFB8D
:1016500061696B6A0B44013B4246023138461CE02B
:101660002A6A96421BDA67692369012E07F102088C
:1016700040F303813744F0181A44013A3B4641468F
:1016800002F0CAFAA369E869012EA3EB0000CCBFFF
:101690009A1B9A1E41463B46013002F0BDFA63692F
:1016A000E7692868012ECCBFF6189E1C013F04F0A4
:1016B00069FB3A463146206902F028FA3A4631463B
:1016C000A06902F023FAE769686804F05BFB20690F
:1016D000023F3A463146013002F018FAA0693A4614
:1016E0003146013802F012FAEB69022B02DC2B6A58
:1016F000022B1FDDAB6AE769A868022BCCBFFF1A7B
:10170000023F04F03FFBEA69022A07DD2069024438
:101710003B46013A3146023002F07EFA2B6A022B38
:1017200008DDA269E869101A3B46023A31460130E9
:1017300002F072FA286804F025FBA2692169E069C9
:1017400002F020F9686804F01DFBA2692169E069D4
:10175000013A0131013802F015F9AE6A022E40F368
:101760008A80A2692769E469A868A2F102080237A1
:1017700004F008FBA11BA31E42460131384602F0CB
:101780004BFA78E0B4F91000B4F91410B4F9182049
:10179000B4F91C302C690194EC680094ADF81C007D
:1017A000ADF81E10ADF82020ADF8223002F0B0F8F0
:1017B00061E000BFE80100206369298BADF81E30AD
:1017C000A369226920685B1A0A44ADF82030E369F6
:1017D000ADF82230ADF81C2001F0ECFB036F059052
:1017E000FBB1022004F048FB059AB2F87C30C3F349
:1017F000C0030E3302EB8303986804F0C3FA059B21
:10180000586B04F0DDFA059B186F01F0D3FB059BC4
:101810000690B3F95A2007A901F040FF06A801F08D
:101820002DFC05A801F02AFC25E02369ADF81C3049
:101830006369ADF81E30A369ADF82030A868E3698C
:10184000ADF8223004F09EFA07A802F00FFA12E079
:10185000206801F0AFFB10ABB0F85A2043F82C0D14
:1018600042F00C02A0F85A20184601F007FC20684C
:1018700009F0A4F804E0002602E0981C4746FBE6C5
:10188000304610B0BDE8F08113B5044680B102F0D7
:1018900051FB204601F08EFB02ABB0F87C4043F8D0
:1018A000040D1846C4F3C00401F0E8FB04F0FAFD8F
:1018B000204602B010BD0000012930B50BD8064B00
:1018C00053F8215004460FCD0FC40FCD0FC495E837
:1018D000070084E8070030BD68A6010838B50D464A
:1018E000044648B102F026FB294620460FF08AF94B
:1018F000BDE8384004F0D6BD38BD2DE9FF410446AF
:101900000F4602F017FB54B3204601F053FBC36DA2
:1019100003909D6800F098F9064604A850F8043D2D
:101920005F6301F0ABFB2B680121204698472B68D1
:1019300007460321204698472B6800218046204611
:1019400098470546204600F06CFA2046009543462D
:101950003A46314600F0F0F9204608F0DEFC04F08B
:10196000A1FD04B0BDE8F081012970B520D8114B6C
:10197000044653F821600FCC35460FC50FCC0FC578
:1019800094E80700F36985E80700012BDCBF022318
:10199000F361336A012BDCBF02233362736A012BCC
:1019A000DCBF02237362B36A012BDCBF0223B36284
:1019B00070BD00BF68A6010837B50D460446E8B102
:1019C00002F0B8FA204601F0F5FA036F009068467D
:1019D000019301F053FB294601A805F057FF58B1C8
:1019E000204601F0E7FA019B00900367684601F08A
:1019F00045FB204608F091FC04F054FD03B030BDD7
:101A000037B50D46044698B102F094FA204601F02D
:101A1000D1FAB0F95A300190AB4204D0A0F85A5034
:101A2000204608F07AFC01A801F028FB04F03AFDFA
:101A300003B030BD2DE9F0430E4685B0044698B39F
:101A400002F078FA204601F0B5FAB0F9545003904C
:101A5000B54223D000F0F8F8039BA3F85460DB6D87
:101A60009E680746336801212046984733688046C0
:101A70000321204698473368002181462046984735
:101A80000646204600F0CDF9204600964B464246D9
:101A9000394600F051F9204608F03FFC03A801F058
:101AA000EDFA04F0FFFC00E00546284605B0BDE86D
:101AB000F0832DE9F7430D46044600284BD002F091
:101AC00039FA204601F076FA0090438E15B143F0C2
:101AD000200701E023F020079F4237D047862046A9
:101AE00000F09FF9009EF56905B3284601F062FAFF
:101AF000B6F90280B0F902300190D0F8209001A828
:101B0000C8EB030801F0BAFAB6F9563098450BD184
:101B1000B36E9D4208D0738E9906284602D508F010
:101B2000BCFF01E008F024FB4D46DDE7009BB3F865
:101B30007C305A0607D5BB06204602D508F0ADFF1B
:101B400001E008F015FB204608F0E7FB684601F0CD
:101B500095FA04F0A7FC03B0BDE8F0832DE9F04F3F
:101B600087B00646894601F025FAC26D0390946855
:101B70000121226830469047226803218046304682
:101B80009047226802218346304690472268002110
:101B90008246304690470090039809F0A3F9054625
:101BA000039809F0A6F907460398448E04F0200430
:101BB000A4B20CB1B0F9584000F046F803990246BF
:101BC000C86E18B1019208F09BFA019ABDF8001096
:101BD000A9F8002092B21444013D0C44A9F80E105B
:101BE000CBEB050B013F01391144A9F802000FFAB4
:101BF00088F80FFA8BFB2044CAEB070AA9F8060005
:101C0000A9F81210A9F80480A9F808B0A9F80AA048
:101C1000A9F80C80A9F810B003A801F02FFAB9F9BF
:101C20000C20049206AAB9F9101042F8041D30469F
:101C300004A900F03CF8049AA9F80C20059AA9F828
:101C4000102007B0BDE8F08F08B5438E03F02003E5
:101C50009BB202463BB1B0F9540028B9506B02F078
:101C6000C7F8023008BD184608BD70B58AB00646F0
:101C70000C4601F09FF90AABC26D43F8280D1846D7
:101C8000956801F0FBF90196032C0BD8DFE804F00E
:101C900002040608182304E0162302E0152300E0DE
:101CA000172302936B6801A898470AB070BD2DE90D
:101CB000F74381460D46164601F07CF9034602A81B
:101CC000DA6D40F8083D9768B3F90040B3F9028037
:101CD00001F0D4F93B68002148469847074648463A
:101CE00008F07AF9814620B3484601F063F9B0F96B
:101CF00002300190C8EB03039F4213D1836A1B0695
:101D000008D5B0F9003032681B1B93420ADC013B56
:101D1000336007E0B0F904302A681B1B9342A4BF6C
:101D200001332B6001A801F0A9F9484608F091F9A8
:101D3000D8E703B0BDE8F0832DE9F04F85B09346B6
:101D40000C4605469A4601F035F904AFC36D47F8D5
:101D5000080D9E68FFF778FF8146384601F08EF93E
:101D600033680121284698473368032107462846EF
:101D7000984733688046002128469847A145034686
:101D800006D15F4504D1D04502D10E9A904245D08C
:101D90002846019308F020F9019B0E9A00269B1A11
:101DA000C4EB09040546B1460193CBEB0707C8EB2A
:101DB0000A089DB3284601F0FDF8836A039003F4F6
:101DC0002073802B02D0B3F5007F1FD124B12246AF
:101DD0002146284608F094FB039B9B6A1A0608D507
:101DE00004FB1981019A284608F04FFB09F1010A0A
:101DF000D146039B9B6A9B0508D504FB0671019A9B
:101E0000284608F042FB06F1010A564603A801F0F5
:101E100035F9284608F01DF90546CAE705B0BDE8C2
:101E2000F08F70B586B0064601F0C4F806AB846E3C
:101E300043F8180DC56E184601F020F904B92DB30A
:101E400001A93046FFF78AFEACB1BDF90A20BDF901
:101E50000810204608F0DAFABDF90E30BDF90A2064
:101E6000BDF908109A1ABDF90C30591A0132013126
:101E7000204608F0C7FD4DB1BDF90A20BDF9063076
:101E8000BDF90810D21A284608F0C0FA06B070BD95
:101E90002DE9F043456887B00446284608F0E6F887
:101EA000814601F087F8034606A85F6E40F8143DAE
:101EB0009E6CD3F8808001F0E1F82368172B52D094
:101EC00009DC0F2B14D002DC0E2B33D045E0143B81
:101ED000012B48D941E01F2B27D002DC1E2B19D043
:101EE0003BE0222B37D0312B37D10023E3603DE09C
:101EF0006FF070439E4204D0304606F03BFA01F08A
:101F000065F99FB394E80F0002AE86E80F000395D1
:101F1000304626E0E3684BB3B8F1000F17D04545D3
:101F200015D0404608F0A2FC20E02146484607F0C4
:101F300077FA1BE0E3685A68002A0EDD1B68092B5C
:101F400005D00A2B09D1284608F016FD0EE02846D8
:101F500008F0E0FC0AE0E66008E027B1C4F804906D
:101F60002046B84702E0204607F088FE07B0BDE8EB
:101F7000F08300002DE9F041D0F80C8086B00446D3
:101F800000200E46174603F00FFF0546B8F1000F7C
:101F900005D098F8043013B140F0020001E025F0BC
:101FA000020003F001FF216969B1012063882288E2
:101FB00003900290E0680190A06800900C683046A1
:101FC0003946A0471FE0DFF85080124BD8F80020B8
:101FD0001B68527CE06821469847E18820B90129B6
:101FE00004BFD8F80030986B638822880590A068F9
:101FF0000490A08802910121039001910091304644
:10200000394605F0A1FD284606B0BDE8F04103F0D1
:10201000CBBE00BFB8000020C80000202DE9F74F5C
:10202000141A5D1A54EA050706468846DDF8309012
:1020300004D103B0BDE8F04F00F0BEB985EAE57009
:1020400084EAE471A0EBE570A1EBE47188420ADD5B
:1020500021462C460D4611461A460B4631460127AD
:102060004646884600E0002784EAE471A1EBE4716B
:10207000A1421FBF98466D423346644217BF1646C1
:1020800001231A464FF0FF33002DD9F800B0DFF8D6
:1020900034A138D1DAF80030C7B19B7E8BB9314614
:1020A000404603B0BDE8F04F05F0B8BE0EF08AFE22
:1020B00030B9DAF800305B6E71195B6840469847BA
:1020C0000135A54205EB0B00F0DD18E0997E91B9D2
:1020D0005B6E1B684146304603B0BDE8F04F1847C1
:1020E0000EF070FE30B9DAF800305B6E41465B6886
:1020F000F01998470137A7420BEB0700F0DD0138D4
:10210000C9F800005AE0DAF80010897E4FF00202A8
:1021100094FBF2F2B8BF5242B1B99146B346C6EB56
:102120000B039C424ADB99FBF4F0DAF800305B6E5B
:1021300040445B6817B90146584600E05946984745
:102140000BF1010BA944EAE7591C04BF04EB0B0196
:10215000C9F800100092B346C6EB0B029442D9F8BE
:10216000000021DB1844C9F8000001930EF02AFE9C
:10217000019B98B9009A92FBF4F0404437B9DAF821
:102180000020526E01465268584605E0DAF80020F9
:102190000193526E526859469047019B009A2A4417
:1021A0000BF1010B0092D7E75A1C04BF2418C9F8A1
:1021B0000040D9F80020D31AC9F8003003B0BDE8B8
:1021C000F08F00BFC80000202DE9F04FDFF8A49188
:1021D000D9F80040247E012C87B007468846154672
:1021E0001E4604D1109C0094FFF718FFBDE0821A30
:1021F000CB1A52EA030100F0B880002AB6BF0121D1
:1022000000215242002BBCBF5B4241F002019A42C6
:10221000BEBF10461A4603464FEA620000EB832316
:1022200093FBF2F3524A4FEAA31EC3F38303C3F1B5
:10223000100C02EB4E00B8BF41F00401BCF1100FCE
:1022400018BF02EB4E02B0F9220018BFB2F92420E9
:102250000CFB00F018BF03FB02000830102390FBBA
:10226000F3F04B0748BFC0F58060CA0748BFC0F510
:1022700000608B0748BFC0F5805000F5806B584662
:1022800005F0F8FB013C00FB04FA584605F0F6FBAC
:10229000BAF1000FB8BFCAF5007300FB04F0B5BF78
:1022A0009B120AF500735B429B120028BBBFC0F56E
:1022B0000070801200F500704042A8BF8012002B11
:1022C000CBBF591C0222491093FBF2F1CEBF5B1029
:1022D00003F1FF3393FBF2F30028C8BF421C1FFA3F
:1022E00087FE89B2D5BF0224521090FBF4F2401051
:1022F000DCBF00F1FF3090FBF4F00EEB0104ADF811
:10230000084092B21FFA88F480B204EB020C241A3F
:102310009BB2ADF80E40ACB2C3EB0E0EE31AADF8B3
:102320001030B3B2181A1A4421440023ADF8120039
:10233000ADF81410ADF8162004211A4602A8ADF825
:102340000AC0ADF80CE000F0D9F8D9F800305B7E97
:102350001BB94146384600F02FF8D9F800305B7EB3
:102360001BB93146284600F027F807B0BDE8F08FCA
:1023700070A60108C800002007B502AA002342F891
:10238000043D00F003F803B05DF804FB73B5094E9B
:10239000336805460C46B3F92600B3F928100092BD
:1023A00023462A46FFF710FF3368DD841C8502B000
:1023B00070BD00BFC8000020064B1B681A7E012AB2
:1023C00002D15B6E5B681847013A022392FBF3F27D
:1023D00000F034B8C80000202DE9F04105468846D9
:1023E000B0F90210B0F900001944104416461F4617
:1023F00000F06EF92C4608F1FF38B8F1000F08DD47
:10240000B4F9061034F9040F39443044FFF7B4FF2F
:10241000F1E7B5F90000B4F90030B5F902108342D4
:1024200003D1B4F902308B4205D039443044BDE8C1
:10243000F041FFF7A1BFBDE8F08100002DE9F04FAA
:1024400040F2C32685B02C4F56434FF47A7396FB67
:10245000F3F6022392FBF3F302FB023301933B6892
:102460005B6E144680461B6802440125001B8946AA
:10247000984708EB0503029308F1FF3301360393F5
:10248000B54235DC04FB04F3019A05FB05339A429F
:1024900018DAB44215DD029BC5EB030A039B03EB7C
:1024A000050B3B685B6E5A461B6804EB09015046FE
:1024B00098473B685B6E5A461B68C4EB090150465F
:1024C0009847013C3B685B6EC4EB080A04EB080BC1
:1024D00009EB05011B685A46504698473B685B6EFE
:1024E000C5EB09011B685A46504698470135C7E7B6
:1024F00005B0BDE8F08F00BFC80000202DE9F74F00
:102500006F4F009305460191904643F6FF740023F8
:10251000019A93420BDA05EB83020133B2F90220F0
:102520009442A8BF14469742B8BF1746F0E7654EDD
:1025300033685B696BB1B3F906200099B3F90230D7
:10254000521A9742A3EB0103A8BF17469C42B8BF9B
:102550001C46009B1C44009BC3EB04094F45C0F282
:10256000AC80594A002313609A46019B03F1FF3B5C
:10257000019B9A455ADADA4505EB8A03B4BF0AF1A2
:10258000010C4FF0000CB3F902304FEA8C0C05EB54
:102590000C024B45B2F9021036D1494502D05346E0
:1025A00000201AE035F92AE035F90C003368C644FA
:1025B00040445B6E8645B8BF02461B68B9BF2146E2
:1025C0007046724621461DE053B1013B05EB830284
:1025D000B2F902204A4505D101308345F4DC22E0FE
:1025E0005B46F3E7C9EB0202C9EB010192EA010F76
:1025F00035F92A0050D433685B6E00EB08021B6883
:102600002146104698470EE049450CD002DB4B4569
:1026100045DD02E04B4506DB01E0494503DC8B422A
:1026200043DC4B4520DD0AF1010AA1E74FF0000928
:102630004846CA46244B1B689A4513DA234B33F9A4
:102640001AB0B9F1000F07D033685B6E08EB0B02CC
:102650001B6821464044984789F001090AF1010AA4
:102660005846E7E7013476E74945DCDB35F92AE0EF
:1026700035F90C20C3EB0900CEEB02024243002ADD
:10268000A1EB0303DBBF581000F1FF3002EB630244
:10269000121A92FBF3F0704409F02AF8C3E78B4258
:1026A000E4DD4945BFDC4B45BDDB184635F90CE0A0
:1026B00035F92A200B460146DCE703B0BDE8F08F70
:1026C00001C0FFFFC80000201CA7012020A7012097
:1026D000024B1B68D8841985704700BFC8000020D2
:1026E00008B50E4B186803F042FB0D4B186803F059
:1026F00049FB012003F0A2FB002003F0ADFB00200A
:1027000003F0BAFB002003F04FFB064B186803F000
:1027100057FB0020BDE8084003F062BBC400002066
:10272000C0000020BC00002038B505460C4600F073
:10273000F7F8AB682268DA6262681A63A2685A63C3
:10274000520707D51A68596883E806009A68D9685D
:102750009960DA60A2899A84226912B122EAE2724F
:102760001A6238BD2DE9F04104461E4617468846D8
:1027700000F0D6F8A5686822414605F58A70FDF795
:102780007BFD2046B8472046B04723699B689847A1
:10279000A862BDE8F081000010B5044600F0C0F862
:1027A000A368114AC3F8AC20104AC3F8A820104A05
:1027B000C3F8B0200F4AC3F8B8200F4A1068526817
:1027C000C3F8C820DA8CC3F8B40022F00302002159
:1027D0000A48DA840A4AC3F8BC10C3F8CC00C3F82C
:1027E000D010C3F8942010BDC10E010811100108CB
:1027F000810E0108BB090108D8000020C90A0108A0
:10280000910D010810B5044600F08AF8A468104B39
:10281000C4F8EC300F4BC4F8F0300F4BC4F8F43070
:102820000E4BC4F8F8300E4BC4F8A0300D4BC4F872
:10283000A430D4F8C830C4F804311021D4F894304E
:10284000204698471023A363074B636410BD00BF65
:10285000EDC3000899E300086D280008A5290008C9
:1028600061090108BD120108ACB20108F7B584681E
:10287000E38C9B070E46174643D5D4F80831204613
:102880009847D4F80C31314605463A4620469847D9
:10289000D4F8983006461BB1002201212046984703
:1028A000A36922699D42D4BF002301239542B8BF8A
:1028B00043F0010362699642B8BF43F0010313B9C4
:1028C000E3699E420ADD62682368013A00920022B1
:1028D000D4F8A870013B11462046B8472946D4F8E1
:1028E000AC30324620469847D4F8A030204698476E
:1028F000D4F8983005467BB1012200212046984744
:102900000AE0D4F8AC3020469847D4F8A0302046EE
:1029100003B0BDE8F0401847284603B0F0BD000002
:1029200038B5856804469DB94FF4BE7000F0BEFA14
:10293000084BA0601B684FF4BE7229469847A368F5
:102940000222DA8401221A62034A1C64C3F81021AD
:1029500038BD00BFD40200205D290008F0B5104C3E
:10296000264607460FCE91B06D460FC596E80F007C
:10297000203485E80F000FCC08AD0FC594E80F0098
:1029800085E80F007B6B10AA02EB830353F8402C01
:1029900053F8203CC7F80821C7F80C3111B0F0BD3E
:1029A000009401082DE9F34184689846E38C9B0765
:1029B0000E4617462ED5D4F8083120469847D4F84D
:1029C0000C3105463A46314620469847A3692269AC
:1029D0009D42D4BF002301239542B8BF43F00103B9
:1029E00062699042B8BF43F00103064613B9E36938
:1029F00098420ADD62682368013A00920022D4F806
:102A0000A870013B11462046B847D4F8AC30324696
:102A1000294601E0D4F8AC3020469847D4F8A430D9
:102A20004146204602B0BDE8F04118474D4B2DE924
:102A3000F04F1A68D169CC69A38983428BB008D85A
:102A4000E589854205D325680695C31A4FF0FF3600
:102A500013E0A368002B7CD01D88A84279D35E8840
:102A6000864276D35B6866680696401B80B203EBAD
:102A7000800533F92030B5F902600993581C68D0FD
:102A800091F818B0B2F92A90A17C364DB2F92270B3
:102A9000B2F9248094F810A01BFB01F34846079379
:102AA00005F0B8FC2968079BCA69896B05910890F5
:102AB00006991846099B00FB03100490A37C03931E
:102AC00001230293D37E0193937E009352465B468B
:102AD0004146384605F038F8731C1AD049F0020018
:102AE00005F098FC2A680699D369926B0592079ABB
:102AF00002FB06160496A27C039201220292DA7E61
:102B000001929B7E009352465B464146384605F053
:102B10001BF82B68DB695A7E1B7E9A4215D9B9F1E6
:102B2000020F12D089F0040005F074FC0D4B1B68F5
:102B3000DB69187ED97E9A7E5B7E00FB018143446F
:102B40000AFB0272384605F093F99DF8200005F063
:102B500061FC044B617C1A68538C0B4453840BB0AA
:102B6000BDE8F08FC8000020044B1B68DB69DB69FF
:102B700009B11A7C0A60587C704700BFC800002069
:102B800002230B807047C3699A898A4202D8DA8986
:102B90008A420FD2986880B1038899420CD3428848
:102BA0008A4209D3C91A436833F82100C043C0F3ED
:102BB000C030704701207047002070472DE9F04F6A
:102BC000384C2368B3F92A80DB6989B00646014690
:102BD000D86900F092F8002860D005884768751B16
:102BE00007EBC506404696F802A005F013FCD4F8A2
:102BF00000C017F83520DCF81CE0DCF838309EF80F
:102C000018B0BCF924108146BCF922000593736802
:102C100004934FF0010CCDF80CA0CDF808C09EF83D
:102C20001BC0CDF804C09EF81AE0CDF800E05B466A
:102C300004F08AFF2368DB69597E93F818A0079196
:102C4000514520D9B8F1020F1DD093F81BB001F007
:102C500057F8804601F01EF803F094F823680799AE
:102C6000B3F924E0B3F92200DB6917F83550DA7EB6
:102C70000BFB01E305FB02020BFB0AE105F0F8F890
:102C8000404603F07FF8484605F0C4FB236871789E
:102C9000DA69907E5A8C00FB01225A8409B0BDE8A3
:102CA000F08F00BFC800002038B50D4B1B68DD69F0
:102CB00002460C460146E86900F01FF870B103882F
:102CC000D21A436803EBC2014878A97E10FB01F0D9
:102CD00024B113F8323011FB03F3236038BD00BF79
:102CE000C800002001230B80704708B5C06900F0C0
:102CF00004F8003018BF012008BD38B103888B42AA
:102D000002D843888B4201D28068F6E77047000002
:102D10002DE9F047DFF86480DFF85890DFF858A01D
:102D20000025D8F800309D4217DAD9F80070DAF89B
:102D300000107C266E43BC19231D74221846FDF733
:102D40009BFA0022BA5104F10C02A26104F10802BC
:102D5000E063226460640135E3E70CF03BF8054B67
:102D60001A687C2303FB0020034B04301860BDE885
:102D7000F08700BFB8A60120C8000020BC020020D8
:102D800070B50E4E0E4B0F4D304640F80C3F04F020
:102D900069FD2C687C235C43204600F087F80A4BD1
:102DA000306022461B68002198474FF0FF336B606C
:102DB0000FF0ACFEBDE870400CF00CB8B8A60120D6
:102DC000D1F70008BC020020D402002010B5044650
:102DD00038B101F0AFF8204608F0FEFD044603F0DC
:102DE00061FB204610BD000073B5054601F0A2F856
:102DF0002846FFF7EBFF064660B100F0DBF802ACB7
:102E0000074B44F8040D1B682A46002198472046CA
:102E100000F034F903F046FB304602B070BD00BF4D
:102E2000D4020020024B21F0030118605960704762
:102E3000B0A4012010B5044680B101F07BF8084B26
:102E40005B6B03EBC4035968486808F071FC2046CB
:102E50000DF032F8BDE8104003F024BB10BD00BFF8
:102E600070A7012028B1034BDA6B026002B15060F9
:102E7000D863704770A7012010B5044601F05AF8D6
:102E80002068FFF7D7FF00232360BDE8104003F060
:102E900009BB70B506460D460024AC4205DA06EBC8
:102EA0008400FFF7E9FF0134F7E770BD2DE9F04139
:102EB0000746264E03370CF029F927F00307306C3C
:102EC000F26B0437874238BF0746144634B154F8D2
:102ED000043C9F4223682CD01C46F7E7F368B26B92
:102EE00002EB030858F8045CC5EB08052B6833B106
:102EF00020460DF039FE58F8045CC5EB08052B6838
:102F00000BBB6B689F421EDC28461C1D0DF00CFE9F
:102F1000F3686868DB1BF3607369E41B3B44C01B08
:102F20002C44736102D0294608F002FC44F8047C6A
:102F300009E00BB161685960616801B10B60A242A0
:102F400001D12368F3632046BDE8F08170A701201A
:102F500008B50CF0DBF80C4A00239918D1F8BC0036
:102F600010B1836800200BE0083B13F1800FF4D10F
:102F700008E05A689B68904238BF104613B19B68BE
:102F8000002BF6D10C3808BD70A7012030B1044BDE
:102F90005B6B03EBC000436858680C38704700BF98
:102FA00070A70120024A936901339361704700BF03
:102FB00070A70120054BDA690132DA615A6B12F809
:102FC0003030013302F8303000F070B870A70120C3
:102FD00073B5044608460D46FFF7F8FE064618B3DB
:102FE00014B32046FFF7D2FF8542A8BF054600F084
:102FF000A1FF3046FFF7DEFF00902046FFF7DAFF23
:103000002A4602AD0A4B0190014655F8080D1B688F
:103010009847284600F032F801A800F02FF8204623
:10302000FFF708FF03F03EFA304602B070BD00BF64
:10303000D002002010B500F07DFFFFF789FF0A4B9A
:10304000B0F5800F8CBF1B6A1B6A4FF0640487BF0A
:1030500090FBF4F003FB00F45843B0FBF4F403F0EE
:1030600021FA204610BD00BF70A70120024A9369D3
:10307000013B9361704700BF70A7012030B5036822
:10308000094953F8085C4C6B14F83530012B03D90F
:10309000CA690AB1013ACA61013B04F8353000231C
:1030A0000360184630BD00BF70A70120034B5B6B67
:1030B00003EBC00040680830704700BF70A70120D4
:1030C00050F8080C70470000B0F1004FF0B51C68D4
:1030D00009D1601C186001392D202070C9B26FF031
:1030E000004001260EE00028BFBF651C1D602D2595
:1030F0002570ACBF00240124A1EB0401B8BF4042FD
:10310000C9B200260AB10139C9B2DFF858E0DFF8C8
:1031100058C081B14D1E9142EDB205D11C68671CAB
:103120001F609EF8007027705CF8257090FBF7F424
:10313000E4B20A2C03D91B6800221A70F0BD07FB09
:10314000140015B90EB10134E4B20A2C08BF0D46C3
:10315000196808BF01244F1C30341F600C702946C9
:10316000D7E700BF34A8012080860108002807DDCA
:103170000B685A1C0A602B221A700B6800221A7006
:103180007047C3B2CAB29A1A92B210B514B2002CE8
:10319000BCBF524214B2C0F30723C1F307229B1AEB
:1031A0009BB2090C1AB2C1EB1041002A89B208B2D5
:1031B000BCBF5B421AB20028BCBF494208B25243AE
:1031C00004FB042280B200FB002010BD10B50021DA
:1031D000084600F021FE044943F6FF731A460846EC
:1031E000BDE8104000F002B801C0FFFF2DE9F34137
:1031F00016461F4604460D4600F09CFE042005F0CE
:1032000009F9144B1B69DA6C1B6D804614441D448C
:1032100016441F446846ADF80040ADF80460ADF8B0
:103220000250ADF8067007F06BFE38B9404605F065
:10323000F1F803F037F902B0BDE8F0813B463246C1
:103240002946204604F014FE07F062FD0028F5D15F
:10325000ECE700BFB8000020B0F90630B0F9042058
:10326000B0F90210B0F90000FFF7C0BF2DE9F34735
:103270000546884614461E4613B906F07BFE0646F0
:1032800000940B9B2C680A9A31462846A0470446B6
:10329000002840D006F061FE698A0746204606F005
:1032A00064F9204607F0F9FB384607F0F6FB4FF0CB
:1032B000000908F1FF38B8F1000F12DD55F81CAF16
:1032C000CDF8009000231A4639462846D04782465A
:1032D00020B9204606F00EFD50461DE007F0DDFB4C
:1032E000E7E71D21384607F0DEF9731C13D000F024
:1032F00021FE06F07FFE50B1FFF7D8FE80698442C0
:1033000007D00028F8D1204607F004FB01E0A642D0
:10331000F9D103F0C7F8204602B0BDE8F0870000FD
:10332000012BF8B506460D4617461C4601DD002068
:10333000F8BD1C20FFF7BAFD0028F8D00DB10561DB
:1033400009E0094B53F8241029B10B680BB1194659
:10335000FBE70B6903610023836084618782C66099
:1033600003604360F8BD00BF4CA8012038B51D467E
:10337000FFF7D6FF044648B100F00EF8E3681B687B
:1033800023B9034B16351B6843F82540204638BD4A
:10339000C8000020FFF766BD30B508B9012030BD78
:1033A0008469012CFADC1B4B1A789442A4BF621C7E
:1033B0001A70194A52F8243015461BB942F82400F5
:1033C000184630BD5A680AB11346FBE7C268126856
:1033D000D9680968914203DD1B68002BF8D1DDE74D
:1033E00009D1818A012906D1196821B10B46C96822
:1033F00009688A42F8DD5A6812B11060426001E043
:1034000045F824005860984208BF0023036000205C
:1034100030BD00BF45A801204CA8012010B520B147
:103420000468FFF7B9FF2046F9E710BD81690A4A31
:1034300052F821309842036804D142F821300BB190
:1034400000225A60426802B11360036803B15A60F7
:1034500000230360436070474CA8012000207047A0
:10346000012809DC054B53F8200020B1C3681B6814
:103470001BB10068F9E77047002070474CA8012095
:103480002DE9F3410E4617469846054670B1FFF701
:1034900091FD044602A8236840F8044D1C68FFF71C
:1034A000EDFD43463A4631462846A04702B0BDE806
:1034B000F08100002DE9F84305460FF021FBDFF80D
:1034C0005880DFF8589005440FF01AFB2E1A002E92
:1034D0001FDD00F055FBD8F800309E42A8BF1E4605
:1034E00000F028FDD9F80040FFF75CFD27461FB12A
:1034F00002F0D8FF013FFAE730460FF0F7FA1CB1AF
:1035000000F018FD013CFAE7FFF7B0FD02F0CAFF3A
:10351000DAE7BDE8F88300BFD4000020BCA6012094
:103520002DE9F04F054685B0002800F08480434C1B
:1035300000F000FD00F000FC23680746B3F922808C
:1035400000F036FC2268938C86B29B1B9384A146C4
:103550002B78002B61D047F6FF71284603F0CEFF91
:1035600001468246284603F099FF2268938D03F0B6
:103570000303012B04D0022B04D190FBF3F302E0F0
:10358000034600E00023518CCB1A9BB219B21FFAFC
:1035900080FB5184ADF80810B2F92420ADF80A2060
:1035A0000BF1FF310B44ADF80C30013ABBB21A44B9
:1035B000ADF80E20514602AA2846019303F0ACFA5A
:1035C0002268BDF80A1091842846514602F054FE44
:1035D0002A5C019B0A2A05EB000E01D00D2A12D1AC
:1035E0002268918D01F00301013901298ABF118CF4
:1035F000A2F8228051849EF800100A290AD1918CE9
:103600000B44938406E0BDF80800D9F800308344E9
:10361000A3F822B09EF8003053B923689A8C164460
:103620009A8D9E8422F003029A8502F03BFF02E00D
:103630000EF101058CE705B0BDE8F08FC800002051
:1036400070B50E461546044600F074FC054B1B6829
:1036500020465E849D84FFF763FFBDE8704002F062
:1036600021BF00BFC8000020F8B50B4B1B68054602
:10367000B3F92C0040F002000E46174602F0ECFBB6
:103680003A46044631462846FFF7DAFF2046BDE8B1
:10369000F84002F0E1BB00BFC800002047F6FF730E
:1036A000AFF300802DE9F3410C46174698460646D5
:1036B000E0B100F03FFC6CB1204607F0CFF90546C1
:1036C00048B102462146684603F080FF684607F08D
:1036D000C5F900E0254643463A462146304603F008
:1036E0006FFA284607F0BAF902F0DCFE02B0BDE836
:1036F000F0812DE9F04F8BB00D4617460393064637
:10370000002800F09A8000F015FCB5F90030B5F9FA
:1037100004900193C3EB09030133B5F90240B5F9F5
:1037200006B0029300F008FB17F00C0882461ED08A
:10373000039A0299304602F0BFFEB8F1080F05D097
:10374000B8F10C0F09D0B8F1040F10D10BF101043E
:1037500010FB0AF0201A04B209E0C4EB0B0301339A
:1037600000FB1A30022390FBF3F0044424B22846F5
:1037700007F074F9804688B1BDF80430ADF8183010
:103780000246294606A8ADF81A40ADF81C90ADF8DF
:103790001EB003F01BFF06A807F060F91FFA8AF3BA
:1037A0000493013B059307F00307039A02993046FF
:1037B00004F0B4F8BDF80430ADF82030059BADF846
:1037C00022401FFA84FB5B44014682463046ADF836
:1037D0002490ADF8263003F061FE012F11D0022FA6
:1037E00004D09FB92B88ADF820300FE0B5F9002048
:1037F000B5F904309B1A181A013090FBF7F0104409
:1038000002E0AB880133181AADF82000304608AA50
:10381000514603F081F93046039A029904F074F896
:10382000049B064403EB0B04337824B2002BBCD179
:10383000404607F013F902F035FE0BB0BDE8F08FFB
:1038400073B5064615460C4600F074FB114B1B6819
:10385000DA6C1B6D1D443388ADF802501444013BF3
:103860002344ADF804307388ADF80040013B2B448D
:103870006846ADF8063007F043FB18B902F012FEB7
:1038800002B070BD2A4621463046FEF773FB07F0B2
:103890003FFAF2E7C80000202DE9F04788B004465F
:1038A00099468A46904600F045FB174B1D68EB6C25
:1038B000286D1C4400EB0A058144984406A8ADF825
:1038C0001840ADF81C80ADF81A50ADF81E9007F006
:1038D00017FB20B902F0E6FD08B0BDE8F0870B4EFB
:1038E0000127129B0293119B0193109B0093424668
:1038F0004B4629462046049703960AF0E6F807F05F
:1039000007FA0028EDD1E5E7C80000206D7D00082A
:103910002DE9F04387B00446904699460D4600F0E5
:1039200009FB164B1B68DA6C1B6D14441D44904454
:10393000994404A8ADF81040ADF81480ADF81250C9
:10394000ADF8169007F0DCFA20B902F0ABFD07B035
:10395000BDE8F0830A4E01270F9B01930E9B009355
:1039600042464B46294620460397029609F0E3FF5C
:1039700007F0CEF90028EFD1E7E700BFC80000202C
:103980006D7D00082DE9F341144F804616460C4624
:1039900000F0D0FA3D682A6DEB6C08EB02051C4480
:1039A0001E4468462BB2ADF80040ADF80460ADF897
:1039B0000230ADF8063007F0A3FA20B902F072FD2C
:1039C00002B0BDE8F0813B685B6E32461B68294659
:1039D0002046984707F09CF9EFE700BFC800002099
:1039E00073B5124E04460D4600F0A4FA3368DA6C43
:1039F0001B6D14441D4423B2ADF80430ADF8003003
:103A000068462BB2ADF80630ADF8023007F078FA10
:103A100018B902F047FD02B070BD33685B6E2946ED
:103A20005B682046984707F073F9F1E7C80000206B
:103A30002DE9F84306461D460F46144600F07AFA73
:103A40000D4B1B680020D3F84C80D3F8509007F042
:103A500057FA18B9BDE8F84302F024BD4D44444478
:103A60002B46224639463046FEF7B6FC07F050F9A1
:103A70000028F5D1EEE700BFC80000202DE9F7438C
:103A800006461F468846914600F054FA1E4B1C68B5
:103A9000206DE56C247E013CA4B22E44331B4D44C2
:103AA00080440744ADF800306319ADF8043068462F
:103AB000C4EB08033C44ADF80230ADF8064007F013
:103AC0001FFA20B902F0EEFC03B0BDE8F08308F164
:103AD000010407F1FF392A464146304604F046F911
:103AE0002A463946304604F041F94A4621463046D6
:103AF00004F094F94A462146284604F08FF907F06D
:103B000007F90028E7D1DDE7C800002073B50446B7
:103B100016460D4600F00EFA0F4B1A68D36C126D64
:103B20001C4423B2154416446846ADF80030ADF885
:103B30000430ADF80250ADF8066007F0E1F918B9AD
:103B400002F0B0FC02B070BD32462946204604F0B7
:103B500065F907F0DDF8F2E7C800002038B5044643
:103B60000D4600F0D9F810B101234560036000F064
:103B7000E1F9204607F050F8BDE8384002F092BC69
:103B800010B5002400F006F808B10124FAE7204639
:103B900010BD00000C4B10B51C681CB1A047041CE4
:103BA00018BF012406F05CF9084B1B68002818BFF9
:103BB00001241BB19847002818BF0124044B1B683F
:103BC00003B19847204610BD70A8012074A80120B9
:103BD0006CA801202DE9F04104460D46164600F080
:103BE000A9F90C4B1B680020DF6CD3F8508007F05C
:103BF00087F918B9BDE8F04102F054BC45443C4493
:103C0000324629462046FEF719FC07F081F80028C5
:103C1000F6D1EFE7C8000020F7B5044616461F4668
:103C20000D4600F087F9104B1B68DA6C1B6D1444CD
:103C30001D4416441F446846ADF80040ADF80460CA
:103C4000ADF80250ADF8067007F05AF918B902F055
:103C500029FC03B0F0BD3B4632462946204604F01D
:103C600007F907F055F8F1E7C8000020B0F9063071
:103C7000B0F90420B0F90210B0F90000FFF7CCBF92
:103C8000034B53F82000C36808219B6A184700BF04
:103C90004CA8012010B500F04DF904F019F904F01A
:103CA000EDF9044602F0FEFB204610BD10B50446B7
:103CB00000F040F9054B1B68DB6900215B6820467A
:103CC0009847044602F0EEFB204610BDC8000020D5
:103CD00038B504460D4600F02DF9064B1B68DB692C
:103CE00029465B6820469847044602F0DBFB2046E5
:103CF00038BD00BFC800002008B106F00BB97047FE
:103D000010B500F017F904F0EBF804F0B7F9044629
:103D100002F0C8FB204610BD1FB50446102200214A
:103D20006846FCF7D3FA2A2320466946009306F03A
:103D3000ABFC039804B010BD10B500F0FBF8044BC9
:103D40001B68DB695C7E02F0ADFB204610BD00BF46
:103D5000C800002038B505460C4600F0EBF8064BCD
:103D6000B3F900302B60054BB3F900302360BDE898
:103D7000384002F097BB00BF36A8012038A80120C8
:103D800010B5044603F0D6FB01462046BDE81040BE
:103D900003F084BB0EF0B4BE044835230370342313
:103DA0008370C37061230371704700BFB0000020AF
:103DB00010B500F0BFF80C4B1A68938D03F00C039C
:103DC000082B07D00C2B05D0042B07D1D3691C7E00
:103DD000013C04E0D3691C7E640800E0002402F08A
:103DE00061FB204610BD00BFC8000020407E704728
:103DF000027EC07E50437047024B53F820301B694F
:103E0000186870474CA80120024B53F820301B69FA
:103E1000586870474CA8012038B505460C4600F09C
:103E200089F8044B1B685D849C8402F03BFB0020F6
:103E300038BD00BFC800002090B583B000AF344A41
:103E4000334B1B6823F001031360324B01221A60CD
:103E500000BF304B1B68002BFBD12F4B2F4A1A6041
:103E60002D4B1B682E4A934200D0FEE702F03EFD28
:103E70002C4B2E221A700EF047FE2B480BF006F941
:103E80000DF0FAFB786004F0A1F80346002B0CBF9C
:103E900001230023DCB204F0ADF80346002B0CBF75
:103EA00001230023DBB22343DBB2002B09D004F053
:103EB00096F8044604F0A7F803461946204604F095
:103EC000A3FA0021002001F099FF06F06DF9FEF73A
:103ED0001FFF164B1B68002B12D00DE0134B1B6805
:103EE0001B68002B03D0114B1B681B6898470F4BB6
:103EF0001B685B680D4A13600C4B1B68002BEDD1EF
:103F00000B4B01221A707B6818460C37BD4690BDDA
:103F1000002000E00830024000300240C2A507F453
:103F2000CDB5E8B534A80120C4A401203CA50120EA
:103F300044A801202DE9F041194C636823B10EF02B
:103F4000DBFDA368984204D00EF02CFE0EF0D4FDE9
:103F5000A0606368DFF848800133012B63601CD1E7
:103F60000AF038FF0F4A536898420746164614D0A5
:103F7000002B11DBD8F800507C2404FB0355FFF71D
:103F80006DFAD8F80030A86704FB0734064BA06F21
:103F9000221D1A60FFF742FA7760BDE8F08100BF8A
:103FA000B8A60120BC020020C800002013B50446BA
:103FB00018B9104B1B681C6ED4B1FFF7BBFF20462D
:103FC000FEF7F8FF02AB446943F8080D1846FFF707
:103FD00055F85CB12046FEF7EDFF02AC836844F86B
:103FE000040D9B6898472046FFF748F802F05AFAFC
:103FF00002B010BDC8000020014A114600F002B80E
:1040000001F0FFFF2DE9F0430C4685B0154606464A
:10401000002845D0FFF78EFF002001F0C5FE224B9F
:104020001B6807463046D3F86080FEF7C3FF03687D
:104030000190986901F072FE019A1C4B9C42138911
:1040400004BFB2F90440B2F90650ADF80840013B94
:104050002344ADF80C305389ADF80A50013B2B4492
:104060008146ADF80E3005F081FC01A8FFF706F897
:1040700002A806F045FF58B9484601F04FFE4046F9
:1040800000F0ACF9384601F08FFE02F00BFA07E0C1
:104090002A462146304600F07FFB06F039FEEAE76B
:1040A00005B0BDE8F08300BFC800002001F0FFFFAD
:1040B0002DE9FF470C9D07469A4688469146FFF733
:1040C00039FF194B1B68587C184B53F82040E368A4
:1040D0001B68042B06D02468002CF8D1FFF7C0F928
:1040E0000446E8B1E3680121DB6A204698470646AA
:1040F00098B12469A3689847013008BF0C4C02941A
:1041000008BF45F001058DE8600053464A46414628
:10411000384600F0FBF9044600E0044602F0C2F91C
:10412000204604B0BDE8F087C80000204CA801205C
:104130004CB3010837B50446F0B1FFF7FBFE0F4B57
:104140001B681B6E9C4201D101F0DAFD2046FEF790
:1041500031FF0190406908B102F08AF902AD55F8CB
:10416000043D1868FFF716F92846FEF787FF20463A
:10417000FEF760FE02F096F903B030BDC8000020E3
:104180002DE9F04F87B00646039298460291FFF75B
:10419000D1FE544B1A68547C534A1257012A2046C8
:1041A0009B4606DD03F018FF8146204603F028FFFA
:1041B00005E003F0F9FE8146204603F0FBFE0446CD
:1041C00036B305A904A8FFF7C5FD049A059BB6F907
:1041D0000070B6F90250914409F1FF321C44B6F95F
:1041E0000490B6F9063027EAE77725EAE575013C41
:1041F0004A45D4BFC7EB0209C7EB09099C42D4BFAB
:10420000C5EB0404C5EB030409F10109013401E025
:1042100035463746B8F1000F01D1C4F10008B9F1B5
:10422000000F01DD002C03DC02F03CF9002055E01A
:10423000109B00934A46434629463846FFF738FF0D
:10424000064630B90398029B984702F02BF90120EB
:1042500044E000F07DF88442804606D0DBF8003070
:10426000986C10B1322107F0ADF9304600F0B6F885
:10427000A2464FF00009D04503DD5146304600F01C
:1042800091F8B9F1000F08D0304605EB0902394624
:1042900000F0CEF83046FFF789FE029B039898475E
:1042A000124B1B680BB1FF2098473046C144FFF703
:1042B000A3FE4C45C8EB0A0ADDDC3046FFF73AFFA7
:1042C000002000F08BF84445AED0DBF80030986C4D
:1042D0000028A9D0332107F075F9A5E707B0BDE89C
:1042E000F08F00BFC800002047A801200CA70120C4
:1042F00037B5044698B1FFF71DFE2046FEF75AFE7B
:10430000036802AD1B6945F8040D9B68984704F0EB
:1043100032FA04462846FEF7B1FE02F0C3F8204602
:1043200003B030BD13B5044670B1FFF703FE20465D
:10433000FEF740FE02AB00F1180443F8040D1846E6
:10434000FEF79CFE02F0AEF8204602B010BD000061
:1043500013B50446FFF7EEFD1CB90A4B1B681C6E33
:1043600054B12046FEF726FE02ABB0F90A4043F8EE
:10437000040D1846FEF782FE02F094F8204602B0C3
:1043800010BD00BFC800002038B5054605242846EA
:1043900007F0CCFD10B9013CF9D138BDBDE838407B
:1043A00000F078B837B50D46044618B90A4B1B68BB
:1043B0001C6E7CB1FFF7BEFD2046FEF7FBFDB0F999
:1043C0000A300190AB42C8BF458101A8FEF756FEF6
:1043D00002F068F803B030BDC8000020F7B506460B
:1043E000FFF7A8FD114B1A681C46176E16B901F0AD
:1043F00087FC16E00FB101F083FC05F02FFC30467E
:10440000FEF7D8FD02AD236845F8040D1E6600686E
:10441000FEF7C2FF2846FEF731FE04F06FF803F006
:10442000D3FF02F03FF8384603B0F0BDC8000020CB
:1044300073B50D461446064618B9154B1B681E6E1B
:1044400026B3FFF777FD3046FEF7B4FD24B22DB258
:10445000C4808580009003F0B7FF009B586980B14D
:10446000FEF7A8FD009B0190B3F90820B3F90A30CC
:104470008280C38012B10BB10580448001A8FEF791
:10448000FDFD6846FEF7FAFD02F00CF802B070BDC3
:10449000C8000020014A114600F002B801F0FFFFF9
:1044A0007FB50C461546064660B3FFF743FD304620
:1044B000FEF780FD144B01909C42038904BFB0F9C4
:1044C0000440B0F90650ADF80840013B2344ADF874
:1044D0000C304389ADF80A50013B2B4401A8ADF8DC
:1044E0000E30FEF7CBFD02A806F00AFD10B901F070
:1044F000D9FF07E02A462146304600F031F906F0A0
:1045000007FCF3E704B070BD01F0FFFF2DE9F04FA9
:10451000464D87B01C462B68109F5B7C81468A46BF
:104520009046129911980022FEF7FAFE039506466E
:1045300080B303699B68984704F01DF900FB08F5F8
:104540000290FEF777FD17F0010708BF042305F17D
:10455000070504BF90FBF3F000EB4000002C4FEA8E
:10456000D50544DC1DB11838B0FBF5F000E0284655
:1045700064428442A8BF044677B900972346424666
:104580005146484601F0F6FE002C834639DC3046A1
:10459000FEF700FF002046E0002CF8DD05FB04F0EC
:1045A0001830FEF713FC07460028F0D04FF0000B40
:1045B0003846FEF7FFFC034606A8029A40F8043D81
:1045C000A3F804901E60A3F806A0A3F808805C81FD
:1045D000DD601A61C3F814B0FEF750FD129B336121
:1045E000039BB7601B685B7CB36138461BE0002F00
:1045F000D4D10097234642465146484601F0BAFEC0
:10460000834605FB04F01830FEF7EEFB0746002852
:10461000CED13046FEF7BEFEBBF1000FBAD05846F1
:10462000FEF708FCE1E707B0BDE8F08FC800002006
:104630002DE9F047454D464BD5F800E0454E9EF834
:104640001140D6F800C053F824408CB007460591BD
:1046500004922369BCF1000F12D0E268DEF860100A
:10466000126819B9B2FA82F2520905E0072A04D099
:10467000394A991A4A424A412AB9049A0599384650
:104680000CF028FE5FE03846FEF794FC03460CA8C9
:10469000B3F9084040F8083DB3F90A90D3F80C800C
:1046A000FEF7ECFC08AB06AA05A9204607F00AFBBA
:1046B000069B002B47DD09AB07AA04A9484607F073
:1046C00023FB079B002B3EDD3846FFF72BFE099BA3
:1046D000089F03FB04772B6800EB8707186E28B34D
:1046E000DDF81490049DFEF765FC04460CA8B4F9AF
:1046F0000630D4F80CA040F8044DED1AB4F904309B
:10470000C3EB09094FEA89090AFB059518352C44C2
:10471000FEF7B4FCBCB1CDF80480CDF800A035683C
:10472000079B069A39462046A8470CE0587C079B11
:104730000193069B0093A400084B02941C68049A02
:1047400005993B46A0470CB0BDE8F087C8000020A3
:104750004CA8012058A801204CB3010854A80120FE
:104760002DE9F3410F4690460646FEF723FC036809
:1047700002ACDB6844F8040D5B6A16210020984700
:1047800005462046FEF77AFC1DB1424639463046C2
:10479000A84702B0BDE8F0812DE9F04F9BB0054677
:1047A00008910992002800F09983FEF703FC1AABE8
:1047B000446943F81C0D1846FEF760FC2846FFF7D5
:1047C00097FD08280746A54E02DD002C00F0C981A0
:1047D00001230027284619930D931897FEF7EAFB4B
:1047E0000268B0F90A3012690E930DF16809536836
:1047F000326849F8140D0469D0F81480D0F80CA080
:10480000B0F908B0507C0C93FFF73AFA32680B907D
:10481000507CFFF7F9FA0A904846FEF72FFC082C67
:104820000A9A0D9B04D9102C8CBF0423022305E0A7
:10483000012C03D118AB0D940A9301E00D930A9754
:104840000C9B934200F0DF803368587CFFF7D4FA6A
:104850000F904FEA8B00FEF7B9FA1090002800F095
:104860003D832846FFF75EFD0546B8F1000F00F0D6
:10487000B9804046FEF79EFB05EB0A031193002327
:10488000DDF8249016900993119B099ACAEB03074F
:104890000E9B934240F3A2801698099A0023179327
:1048A00083680DF15C085B6941469847834505467E
:1048B00028D11098FEF77EFB0F9B0193082C0C9BD0
:1048C0001490014600935A460B9B384602D907F0D4
:1048D000A0FA01E007F0BCFA0A9B05931AAD08980C
:1048E00055F8183D0493002303930B9B0293012377
:1048F000019300935A46494603F026F92846FEF7ED
:10490000BDFB62E0012C02D04FF0010857E0002D02
:104910005BD01798089ECDF80CA000F00703069313
:104920000A9B0593082390FBF3F33B440493012374
:104930002A460293019300934946304403F0F0FD68
:10494000179B1698099A1D44836817955B69414621
:1049500098470546DBE71098FEF72CFB0F9B149059
:1049600001460D9E17980193082C0C9B00932A4634
:104970000B9B00FB067025D907F04BFA0A9B0593A9
:10498000149B04931798089ECDF80480002303938A
:104990000B9B02932A46012349463044CDF8008000
:1049A00003F0D2F814A8FEF769FB179B1698099A32
:1049B0001D44836817955B6917A998470546002D24
:1049C000C9D102E007F044FAD8E7099B0133099303
:1049D000119B5344119309F1010955E716A8FEF7FD
:1049E0004DFB0EE00A9B0593012304900193009375
:1049F000CDF80CA002940E9B099908985A4603F032
:104A0000A3F8109868E22846FFF78CFC0746B8F137
:104A1000000F00F09A804046FEF7CCFA0025169071
:104A20000E9BAB4240F38D8016980023179383684A
:104A30000DF15C085B692A46414698478345064666
:104A400026D12E461698836806F101095B694A460D
:104A500041469847834503D14E46F3E7C8000020FE
:104A60000A9B09990593C5EB0608012308F1010883
:104A70000497019300932944CDF80CA00294434677
:104A80005A46089803F060F80AFB0877354656E066
:104A9000012C099B04D02B440B934FF001092BE010
:104AA00003EB0509A0462EB3DDF85CE00898CDF8CD
:104AB0000CA00EF0070306930A9B059308239EFBA8
:104AC000F3F33B4432467044049349460123CDF846
:104AD0000880CDF80480CDF8008003F021FD179BFD
:104AE00016981E44836817965B692A4617A998474B
:104AF0000646D8E7574422E0002EFBD00A9BDDF89B
:104B00005CE005930D9B08980B99CDF80CA003FB76
:104B10000E7332467044049302940123CDF804903E
:104B2000CDF8009003F010F8179B16981E44836888
:104B300017965B692A46414698470646DCE70135E9
:104B40006EE716A8FEF79AFAC8E10A9B05930123BF
:104B5000019300930490CDF80CA002940E9B5A464A
:104B60003AE02846FEF726FA83461AA8BBF90A302F
:104B700040F810BDDBF800200B93DBF80C30D2F8C6
:104B800010800C93BBF90840FEF778FA3268D8F829
:104B90000490507CA14A52F82020166933680A9389
:104BA000FFF76EF808280C9B06D910288CBF4FF031
:104BB000040A4FF0020A01E04FF0010AB04510D19B
:104BC0000393012300220BF11800019300930B9B28
:104BD00005920490029722460999089802F0B4FFC2
:104BE0007CE1202F40F0A2800AFB04F0FEF7EEF8F3
:104BF0000D90002800F07281FEF7DCF9189028462D
:104C0000FEF7D8F9169033694FEACA0200F1180589
:104C10004FEA840B0C9273B3DDF824804FF0010946
:104C2000BAF1020F05D0BAF1040F02D0BAF1010FA8
:104C300006D128463769189953462246B8475D443D
:104C40000023189A059303930C9B04920293224627
:104C50000123CDF80490CDF800904146089802F069
:104C600073FF0B9B099A08F1010713449F4200F060
:104C70002C81B846D4E7099F1E460B9B3B444FF05E
:104C800001090993BAF1020FDDF8608016D0BAF17C
:104C9000040F24D0BAF1010F30D143462A4652F80E
:104CA000040B0E930A9B0B9298470E9B0B9A03F8EA
:104CB000010BE11A18EB010FF1D11EE043462A4621
:104CC000A04652F8040B0E930A9B0B9298470E9B3A
:104CD0000B9A23F8020BB8F10108F2D10DE02A4635
:104CE000234652F8040B0E930A9B0B9298470E9B97
:104CF00048F8040B013B0B9AF3D15D44189B0493D5
:104D00000C9B0293059601230396CDF80490CDF8F1
:104D1000009022463946089802F016FF099B07F1D9
:104D20000108434500F0D1804746ABE7102F40F023
:104D3000D58004FB0AF0FEF749F80D90002800F03A
:104D4000CD80FEF737F918902846FEF733F9169014
:104D5000336900F1180713B1D8F8143053B94FEA8A
:104D6000CA03099D0C930B9B2B4466004FF0000B6C
:104D7000099383E0B0F908008000FEF727F80C9053
:104D800018B1FEF717F9179001E00C9B1793179BCA
:104D9000002B00F09A8063000A93DDF824B04FEAFC
:104DA000CA030E93BAF1020FDDF8609006D0BAF193
:104DB000040F05D0BAF1010F11D101E0534600E014
:104DC0000223384622461799D8F81450A84753466C
:104DD0002246494617983569A8470A9B1F44002375
:104DE000059303930E9B189A029301230492019357
:104DF000009322465946089802F0A6FE0B9B099A9A
:104E00000BF101091344994501D0CB46CAE717A815
:104E1000FEF734F90C98FEF70DF856E04CA8012087
:104E2000BAF1040F41D0BAF1010F11D143463A460D
:104E300032F8020B0B920E93C8470A9B98470E9BC1
:104E40000B9A03F8010BE11A18EB010FF0D137446C
:104E5000189B04930C9B0293012301930093CDF8BC
:104E600014B0CDF80CB022462946089802F06CFE2A
:104E7000099B05F10108434527D04546BAF1020FC9
:104E8000DDF86080CCD143463A46A04632F8020BAA
:104E90000B920E93C8470A9B98470E9B0B9A23F8D8
:104EA000020BB8F10108F1D1D1E73A46234632F8B6
:104EB000020B0B920E93C8470A9B98470E9B48F82B
:104EC000040B013B0B9AF2D1C1E716A8FEF7D6F806
:104ED00018A8FEF7D3F80D98FDF7ACFF1BB0BDE89E
:104EE000F08F00BF10B538B309B30AB3B2F9004070
:104EF000B1F90030A342A8BF23460380B2F90240B3
:104F0000B1F90230A342A8BF23464380B2F904405E
:104F1000B1F90430B2F90620A342B8BF234683801A
:104F2000B1F906309342B8BF1346C38010BD114695
:104F30000B6803604B68436010BD68B1038889B299
:104F40000B440380838819444388818092B21344C0
:104F50004380C3881A44C2807047000010B5FEF732
:104F6000E9FF0B4A136851688B420BD0094CA342EE
:104F700093E8030014BF0833503B1360012405F08D
:104F80009DFA00E0002401F08DFA204610BD00BF1C
:104F9000CC000020B4A501202DE9F04F8DB00446CF
:104FA000049115461E46FEF7C5FFFDF7FBFF002CDA
:104FB00000F00781282E00F20481032D00F3018107
:104FC00018200AF09EFA8346002800F0FA80002399
:104FD0008360C3600660456003612378002B00F0A6
:104FE000F4802378002B00F0F4800221204609F0A1
:104FF00085FF0346E8BBDBF800100AF0D5FF064644
:1050000020460378303B092B00F1010201D81046FD
:10501000F7E70221051B09F071FF022801460DD1B7
:1050200028460BF001FA30440C306E1CA0EBC60091
:10503000002815DD0A462046594623E001280FD1F5
:1050400028460BF0F1F90146681C0BF0E3F90E4419
:105050000A36301A002803DD0222594620460EE0A7
:1050600023462A46002158460AF0B2FF00280CDAEF
:10507000ABE0012B4FF002025946204602D108F066
:1050800041FF01E008F0DAFE0546002D00F0A180A6
:10509000C0F29B802C44A4E7029B25EAE57503EB54
:1050A0000517039B05FB0434059B06FB0535009B98
:1050B000002B40F054830023C9F82030B9F1000FD1
:1050C00000F08181D9F800300093009A07991C23E1
:1050D00003FB0213D3F8FCA0531E272B00F27485A8
:1050E000BA4B03EB82035E68002E00F06B83009BDB
:1050F000B64C04EB83046368002B00F065850AFB63
:105100000AF3184601930AF0FCF90746002800F05C
:105110005B85AF4B019A1B686168984718200AF0BD
:10512000F0F90646002800F054850AF1FF33836049
:10513000C3604FF0FF33C0F800A0476003614361D4
:105140004FF00008D9F80420D9F808101144884518
:1051500080F26C84D9F820309A4240F34684D9F822
:105160001C00D9F81820016893FBF2F48C42A8BF08
:10517000D9F8141002FB1432A8BF521800EB021227
:105180005268155D0133C9F820300821802330466C
:105190000391029309F0B2F8029B03990446002898
:1051A00040F0368448460BF0C9FB304609F0EFFA70
:1051B000384609F0ECFA58460AF01FFF002C40F080
:1051C0000D814FF0000800F008BD58460AF015FFA9
:1051D000F7E7DBF80030282B00F2F580DBF804302D
:1051E000032B00F3F08024200AF08BF9814600287D
:1051F00000F0E980DBF81030B3B1012B03D10022BD
:105200001146062006E0022B40F0D3820BF1140277
:10521000012107200BF01AF9002800F0CA82DBF800
:1052200008300361CBF80800DBF808300093002554
:10523000002D14BF2B460123DDF800A001930024AC
:1052400002274FF00D08BAF1000F52D0DAF80060D3
:10525000072E31D8DFE806F0060B1115481C042E86
:10526000042242E0DAF804000BF0DEF803E0DAF89A
:1052700004000BF0CFF8024621E0DAF80420D20057
:105280001DE0DAF8042092FBF7F208FB02F216E0C8
:10529000DAF8081000230A1D12F8010D914240EAC5
:1052A0000323F9D17F2B09D9B3F5804F34BF1422E2
:1052B0001C2204E00C2218E0002216E00C22032E2F
:1052C00004D8019930460AF06FFE00E00020012367
:1052D00003FA00F1DAF8043004300B44013B93FB8D
:1052E000F1F300FB032200E014221444DAF810A0CA
:1052F000A9E7DBF8041008230734890094FBF3F4D2
:105300001C200123334A00FB032256185268F6681A
:10531000921B94422F4E40F303810133292BF1D18C
:105320004FF0FF33DBF800209A4203DA282B98BFB6
:10533000CBF800301C27DBF808500024002D00F0CB
:10534000F480DBF8001028460AF068FE0028C0F25E
:10535000308204442D69F1E706F06BFC0546002815
:1053600000F02782DBF80840002C40F0F8801A4952
:10537000DBF80030DBF80420D5F800A01C2000FB8F
:105380000310C3EBC303134401EB8303D0F80061A4
:10539000D3F80831C3EB06084FEAC8018A4500F389
:1053A000058240F0E5802E68002E40F02B8100241D
:1053B000284606F047FCC9F80C40002C40F0558107
:1053C000484609F0E4F90024F5E600BFC0A5012035
:1053D000D0020020CC870108D0860108049BA76872
:1053E000266803FB07F909F10705082395FBF3F588
:1053F00005FB09F03030FDF7F7FC8046002869D046
:10540000FDF7D8FD63684361A36883610123C3800E
:1054100000F11C03C3600223C36100F128031FFADB
:1054200089F943624FF07F430B9000F13001A0F8FF
:105430000290A0F8009083624FF000094FF0FF3314
:105440008580816080F82090C362B9453FDA0846C4
:10545000B6468022C6EB0E039F4222DD4FF0000CC1
:10546000049B9C451ADA9EF800A003781AF0020FFC
:105470000AF0010A03D0BAF1000F03D005E0BAF137
:10548000000F02D023EA020300E013435208037026
:1054900004BF802201300CF1010CE1E70EF1010E96
:1054A000D8E7002FA8BFF6194FF0010A049B9A45D0
:1054B00001EB050307DA2A461846FAF7DDFE0AF182
:1054C000010A0146F2E7194609F10109BDE70BA8F7
:1054D000FDF7D4FD206809F05AF9204609F057F984
:1054E000B54C002604F1A005206809F050F944F8F5
:1054F000046BA542F8D1B14B1C681D4674B1A0687D
:10550000E66A09F044F9E06809F041F9206909F018
:105510003EF9204609F03BF93446EFE72C605CE3A6
:105520009D42BFF6FFAE1D4682E6DBF8043007342D
:105530009A00E410012307FB036188184968C068DA
:10554000091A8C4203DD0133292BF4D131E1DBF858
:1055500000209A42BFF600AFCBF80030EBE6E168DE
:10556000284606F0C7FA0028C0F220812469FBE62D
:10557000CAEB0101042904DC2246284606F024FB7C
:105580003CE008230AF10B0696FBF3F606F051FB0C
:105590000746002800F00A812246CAEBC60106F041
:1055A00013FB00281DDBC6EB0806002E1DDD304670
:1055B00009F0A7FF8046A0B114F0010F14BF11231A
:1055C000EC2308F804300134A642F5D142463146B6
:1055D000384606F0C7FA0446404609F0D8F8002CD1
:1055E00003DA384606F02EFBE0E03946284606F09E
:1055F00081FA0446384606F025FB20460028BFF60F
:10560000D2AED3E0F01D082490FBF4F009F079FF4E
:1056100000283FF4CCAE96FBF4F4696807460B46CD
:105620003A1A94420DDD03F1080E002213F801CB63
:105630005200D2B2734542EA0C02F7D107F8012BAF
:10564000EEE724EAE47301EBC30116F007030AD086
:105650000E46002216F8017B5200D2B23A43771A66
:10566000BB42F7DC02550446A2E69BE80C00544915
:10567000079103EB820001EBC000D0F87855D0F819
:105680007C050090C2EBC200034401EB8303D3F816
:1056900008611C2303FB0213D3F80041009BA41BE9
:1056A000EF1823B994FBF5F496FBF5F604E094FBB0
:1056B000F7F4631C96FBF7F60193C9F80020009BF2
:1056C000019AC9F81450534304FB053306FB07F055
:1056D000C9F80430C9F8080009F013FFC9F8100030
:1056E00020B9D9F80C0009F052F869E6C9F8187029
:1056F0003801FDF779FBFDF75DFC0290C9F81C004D
:10570000002800F06182D9F80C300393C4F1FF0146
:10571000D9F810300593891B304609F02BFD06900F
:10572000002800F05182029FDDF814A0DDF80C8003
:1057300000239D4207F110077FF7AEAC47F80C8CB1
:1057400007E940045246414647F8104C0698089332
:1057500008F0A4FC089BA044B2440133E9E7019B94
:10576000C3F1FF01891B304609F004FD8246002881
:1057700000F02A824FF00008009B984507F11007BF
:10578000BFF699AC019B47F8103C47F80C4C47F822
:10579000045C2A46214647F8086C504608F07EFC17
:1057A000019B35441C4408F10108E5E7284606F052
:1057B00049FA0024FFE500BFC8A50120C0A50120CB
:1057C000D08601080AFB0AF5284609F09AFE04462D
:1057D000002800F00381A84F2A463B6831469847CD
:1057E000AAF1070533463246514620460BF08CF8A5
:1057F0002A463346514620460BF086F82B46324661
:105800005146204605FB0AF50BF07EF86119234648
:105810000722C020D8715344013A03F8080CC8711C
:105820005144F7D14FEACA06CAEB0608A0443B68C8
:105830000822C02140469847A6F108003B6808228C
:10584000C02120449847CAEB0503019301983B68A7
:105850000822C021201898473B680922842108EBC0
:105860000A00984706EB0A0008383B6808228421A2
:1058700020449847224608238421013B1172524458
:10588000FBD10835254407238422013B2A70554467
:10589000FBD10623063603FB0A43264407330121C6
:1058A000AAF10F00CAF100058142564409DA01F05D
:1058B000010262F06F02D2B203F8012F013172557A
:1058C000F2E7009B012B00F084806C4B009A06935A
:1058D00003EBC202D2F8985AD2F89C2AB2EB050820
:1058E00057BFC5EB0A03022393FBF8F3023303FB14
:1058F00003F2042A04D0013B2E460127059306E05B
:105900002B462A46514620460AF0E4FF2BE0059B31
:105910009F420EDA33460622514620460AF0DAFF4D
:1059200032460623514620460AF0D4FF464401374A
:10593000EDE7029500230393039A059B934212DD42
:105940002F460026059BB342029B07DD3A4651468F
:1059500020460AF0BFFF47440136F3E74344029371
:10596000039B0133E7E7009B062B32DD073B212B2E
:105970009BBF069A02EB83030022D3F8E02B019B26
:105980000AEB4A00181A17460023191800260325A7
:10599000214407F0010E6EF0770E013D01F806E09C
:1059A0004FEA57075644F4D10133062BEDD1AAF143
:1059B0000C012144CE1C084602F0010565F0770574
:1059C00000F8015FB0424FEA5202F5D1013B514469
:1059D000F0D1019B234481221A722646284B009A5B
:1059E00003EB82035E60FFF782BB99420DDDD9F8BD
:1059F0001810D9F81C009A1A92FBF1F401FB14223A
:105A000000EB0212D268FFF7BCBB0025FFF7BDBB5D
:105A10001D4214BF03220222013902704FEA5303D0
:105A20007FF4B5AB08F10108FFF78CBB48460AF0DC
:105A300085FF124A00991C2303FB01230025D3F89C
:105A400004814FF0020909E0304608F057FC044693
:105A500000283FF4AAAB80F800900135A845F3DC9C
:105A60000198DBF8044009F04CFD804650B93046FF
:105A700008F08DFE3846A4E4D4020020D086010848
:105A8000C0A501204FEACA030393039A0AF1FF332A
:105A900013440693554B03EB44120892AAF10702F4
:105AA0000AFB02F2059200246FF00042803302925A
:105AB000A1460993099B424653F82930394650467E
:105AC0009847069A089B079008EB020C53F8293078
:105AD000002211461546D8074CBF4FF0850E4FF0F7
